{
  "address": "0x2460668148DB97441b9beacfe93A0C6dB7632DA1",
  "abi": [
    {
      "inputs": [
        {
          "internalType": "string",
          "name": "name_",
          "type": "string"
        },
        {
          "internalType": "string",
          "name": "symbol_",
          "type": "string"
        }
      ],
      "stateMutability": "nonpayable",
      "type": "constructor"
    },
    {
      "anonymous": false,
      "inputs": [
        {
          "indexed": true,
          "internalType": "address",
          "name": "owner",
          "type": "address"
        },
        {
          "indexed": true,
          "internalType": "address",
          "name": "spender",
          "type": "address"
        },
        {
          "indexed": false,
          "internalType": "uint256",
          "name": "value",
          "type": "uint256"
        }
      ],
      "name": "Approval",
      "type": "event"
    },
    {
      "anonymous": false,
      "inputs": [
        {
          "indexed": false,
          "internalType": "address",
          "name": "account",
          "type": "address"
        }
      ],
      "name": "Paused",
      "type": "event"
    },
    {
      "anonymous": false,
      "inputs": [
        {
          "indexed": true,
          "internalType": "bytes32",
          "name": "role",
          "type": "bytes32"
        },
        {
          "indexed": true,
          "internalType": "bytes32",
          "name": "previousAdminRole",
          "type": "bytes32"
        },
        {
          "indexed": true,
          "internalType": "bytes32",
          "name": "newAdminRole",
          "type": "bytes32"
        }
      ],
      "name": "RoleAdminChanged",
      "type": "event"
    },
    {
      "anonymous": false,
      "inputs": [
        {
          "indexed": true,
          "internalType": "bytes32",
          "name": "role",
          "type": "bytes32"
        },
        {
          "indexed": true,
          "internalType": "address",
          "name": "account",
          "type": "address"
        },
        {
          "indexed": true,
          "internalType": "address",
          "name": "sender",
          "type": "address"
        }
      ],
      "name": "RoleGranted",
      "type": "event"
    },
    {
      "anonymous": false,
      "inputs": [
        {
          "indexed": true,
          "internalType": "bytes32",
          "name": "role",
          "type": "bytes32"
        },
        {
          "indexed": true,
          "internalType": "address",
          "name": "account",
          "type": "address"
        },
        {
          "indexed": true,
          "internalType": "address",
          "name": "sender",
          "type": "address"
        }
      ],
      "name": "RoleRevoked",
      "type": "event"
    },
    {
      "anonymous": false,
      "inputs": [
        {
          "indexed": true,
          "internalType": "address",
          "name": "from",
          "type": "address"
        },
        {
          "indexed": true,
          "internalType": "address",
          "name": "to",
          "type": "address"
        },
        {
          "indexed": false,
          "internalType": "uint256",
          "name": "value",
          "type": "uint256"
        }
      ],
      "name": "Transfer",
      "type": "event"
    },
    {
      "anonymous": false,
      "inputs": [
        {
          "indexed": false,
          "internalType": "address",
          "name": "account",
          "type": "address"
        }
      ],
      "name": "Unpaused",
      "type": "event"
    },
    {
      "inputs": [],
      "name": "DEFAULT_ADMIN_ROLE",
      "outputs": [
        {
          "internalType": "bytes32",
          "name": "",
          "type": "bytes32"
        }
      ],
      "stateMutability": "view",
      "type": "function"
    },
    {
      "inputs": [
        {
          "internalType": "address",
          "name": "owner",
          "type": "address"
        },
        {
          "internalType": "address",
          "name": "spender",
          "type": "address"
        }
      ],
      "name": "allowance",
      "outputs": [
        {
          "internalType": "uint256",
          "name": "",
          "type": "uint256"
        }
      ],
      "stateMutability": "view",
      "type": "function"
    },
    {
      "inputs": [
        {
          "internalType": "address",
          "name": "spender",
          "type": "address"
        },
        {
          "internalType": "uint256",
          "name": "amount",
          "type": "uint256"
        }
      ],
      "name": "approve",
      "outputs": [
        {
          "internalType": "bool",
          "name": "",
          "type": "bool"
        }
      ],
      "stateMutability": "nonpayable",
      "type": "function"
    },
    {
      "inputs": [
        {
          "internalType": "address",
          "name": "account",
          "type": "address"
        }
      ],
      "name": "balanceOf",
      "outputs": [
        {
          "internalType": "uint256",
          "name": "",
          "type": "uint256"
        }
      ],
      "stateMutability": "view",
      "type": "function"
    },
    {
      "inputs": [
        {
          "internalType": "uint256",
          "name": "amount",
          "type": "uint256"
        }
      ],
      "name": "burn",
      "outputs": [],
      "stateMutability": "nonpayable",
      "type": "function"
    },
    {
      "inputs": [
        {
          "internalType": "address",
          "name": "account",
          "type": "address"
        },
        {
          "internalType": "uint256",
          "name": "amount",
          "type": "uint256"
        }
      ],
      "name": "burnFrom",
      "outputs": [],
      "stateMutability": "nonpayable",
      "type": "function"
    },
    {
      "inputs": [],
      "name": "decimals",
      "outputs": [
        {
          "internalType": "uint8",
          "name": "",
          "type": "uint8"
        }
      ],
      "stateMutability": "view",
      "type": "function"
    },
    {
      "inputs": [
        {
          "internalType": "address",
          "name": "spender",
          "type": "address"
        },
        {
          "internalType": "uint256",
          "name": "subtractedValue",
          "type": "uint256"
        }
      ],
      "name": "decreaseAllowance",
      "outputs": [
        {
          "internalType": "bool",
          "name": "",
          "type": "bool"
        }
      ],
      "stateMutability": "nonpayable",
      "type": "function"
    },
    {
      "inputs": [
        {
          "internalType": "bytes32",
          "name": "role",
          "type": "bytes32"
        }
      ],
      "name": "getRoleAdmin",
      "outputs": [
        {
          "internalType": "bytes32",
          "name": "",
          "type": "bytes32"
        }
      ],
      "stateMutability": "view",
      "type": "function"
    },
    {
      "inputs": [
        {
          "internalType": "bytes32",
          "name": "role",
          "type": "bytes32"
        },
        {
          "internalType": "address",
          "name": "account",
          "type": "address"
        }
      ],
      "name": "grantRole",
      "outputs": [],
      "stateMutability": "nonpayable",
      "type": "function"
    },
    {
      "inputs": [
        {
          "internalType": "bytes32",
          "name": "role",
          "type": "bytes32"
        },
        {
          "internalType": "address",
          "name": "account",
          "type": "address"
        }
      ],
      "name": "hasRole",
      "outputs": [
        {
          "internalType": "bool",
          "name": "",
          "type": "bool"
        }
      ],
      "stateMutability": "view",
      "type": "function"
    },
    {
      "inputs": [
        {
          "internalType": "address",
          "name": "spender",
          "type": "address"
        },
        {
          "internalType": "uint256",
          "name": "addedValue",
          "type": "uint256"
        }
      ],
      "name": "increaseAllowance",
      "outputs": [
        {
          "internalType": "bool",
          "name": "",
          "type": "bool"
        }
      ],
      "stateMutability": "nonpayable",
      "type": "function"
    },
    {
      "inputs": [
        {
          "internalType": "address",
          "name": "to",
          "type": "address"
        },
        {
          "internalType": "uint256",
          "name": "amount",
          "type": "uint256"
        }
      ],
      "name": "mint",
      "outputs": [],
      "stateMutability": "nonpayable",
      "type": "function"
    },
    {
      "inputs": [],
      "name": "name",
      "outputs": [
        {
          "internalType": "string",
          "name": "",
          "type": "string"
        }
      ],
      "stateMutability": "view",
      "type": "function"
    },
    {
      "inputs": [],
      "name": "pause",
      "outputs": [],
      "stateMutability": "nonpayable",
      "type": "function"
    },
    {
      "inputs": [],
      "name": "paused",
      "outputs": [
        {
          "internalType": "bool",
          "name": "",
          "type": "bool"
        }
      ],
      "stateMutability": "view",
      "type": "function"
    },
    {
      "inputs": [
        {
          "internalType": "bytes32",
          "name": "role",
          "type": "bytes32"
        },
        {
          "internalType": "address",
          "name": "account",
          "type": "address"
        }
      ],
      "name": "renounceRole",
      "outputs": [],
      "stateMutability": "nonpayable",
      "type": "function"
    },
    {
      "inputs": [
        {
          "internalType": "bytes32",
          "name": "role",
          "type": "bytes32"
        },
        {
          "internalType": "address",
          "name": "account",
          "type": "address"
        }
      ],
      "name": "revokeRole",
      "outputs": [],
      "stateMutability": "nonpayable",
      "type": "function"
    },
    {
      "inputs": [
        {
          "internalType": "bytes4",
          "name": "interfaceId",
          "type": "bytes4"
        }
      ],
      "name": "supportsInterface",
      "outputs": [
        {
          "internalType": "bool",
          "name": "",
          "type": "bool"
        }
      ],
      "stateMutability": "view",
      "type": "function"
    },
    {
      "inputs": [],
      "name": "symbol",
      "outputs": [
        {
          "internalType": "string",
          "name": "",
          "type": "string"
        }
      ],
      "stateMutability": "view",
      "type": "function"
    },
    {
      "inputs": [],
      "name": "totalSupply",
      "outputs": [
        {
          "internalType": "uint256",
          "name": "",
          "type": "uint256"
        }
      ],
      "stateMutability": "view",
      "type": "function"
    },
    {
      "inputs": [
        {
          "internalType": "address",
          "name": "to",
          "type": "address"
        },
        {
          "internalType": "uint256",
          "name": "amount",
          "type": "uint256"
        }
      ],
      "name": "transfer",
      "outputs": [
        {
          "internalType": "bool",
          "name": "",
          "type": "bool"
        }
      ],
      "stateMutability": "nonpayable",
      "type": "function"
    },
    {
      "inputs": [
        {
          "internalType": "address",
          "name": "from",
          "type": "address"
        },
        {
          "internalType": "address",
          "name": "to",
          "type": "address"
        },
        {
          "internalType": "uint256",
          "name": "amount",
          "type": "uint256"
        }
      ],
      "name": "transferFrom",
      "outputs": [
        {
          "internalType": "bool",
          "name": "",
          "type": "bool"
        }
      ],
      "stateMutability": "nonpayable",
      "type": "function"
    },
    {
      "inputs": [],
      "name": "unpause",
      "outputs": [],
      "stateMutability": "nonpayable",
      "type": "function"
    }
  ],
  "transactionHash": "0x9ef4b570a1e627f680e9c6bc0618a42c70fa718769adc08a3016278425b8c8cd",
  "args": [
    "FestivalToken",
    "FTK"
  ],
  "numDeployments": 1,
  "solcInputHash": "f8c268d7ee2d00c0d95e6a0432c0ed1a",
  "bytecode": "0x60806040523480156200001157600080fd5b50604051620034c7380380620034c78339818101604052810190620000379190620006bb565b81818160039080519060200190620000519291906200046e565b5080600490805190602001906200006a9291906200046e565b5050506000600560006101000a81548160ff0219169083151502179055506200009d6000801b33620000e460201b60201c565b620000dc33620000b2620001d660201b60201c565b600a620000c09190620008da565b620f4240620000d091906200092b565b620001df60201b60201c565b505062000b71565b620000f682826200035860201b60201c565b620001d25760016006600084815260200190815260200160002060000160008373ffffffffffffffffffffffffffffffffffffffff1673ffffffffffffffffffffffffffffffffffffffff16815260200190815260200160002060006101000a81548160ff02191690831515021790555062000177620003c360201b60201c565b73ffffffffffffffffffffffffffffffffffffffff168173ffffffffffffffffffffffffffffffffffffffff16837f2f8788117e7eff1d82e926ec794901d17c78024a50270940304540a733656f0d60405160405180910390a45b5050565b60006012905090565b600073ffffffffffffffffffffffffffffffffffffffff168273ffffffffffffffffffffffffffffffffffffffff16141562000252576040517f08c379a00000000000000000000000000000000000000000000000000000000081526004016200024990620009ed565b60405180910390fd5b6200026660008383620003cb60201b60201c565b80600260008282546200027a919062000a0f565b92505081905550806000808473ffffffffffffffffffffffffffffffffffffffff1673ffffffffffffffffffffffffffffffffffffffff1681526020019081526020016000206000828254620002d1919062000a0f565b925050819055508173ffffffffffffffffffffffffffffffffffffffff16600073ffffffffffffffffffffffffffffffffffffffff167fddf252ad1be2c89b69c2b068fc378daa952ba7f163c4a11628f55a4df523b3ef8360405162000338919062000a7d565b60405180910390a36200035460008383620003f860201b60201c565b5050565b60006006600084815260200190815260200160002060000160008373ffffffffffffffffffffffffffffffffffffffff1673ffffffffffffffffffffffffffffffffffffffff16815260200190815260200160002060009054906101000a900460ff16905092915050565b600033905090565b620003db620003fd60201b60201c565b620003f38383836200045260201b62000b0e1760201c565b505050565b505050565b6200040d6200045760201b60201c565b1562000450576040517f08c379a0000000000000000000000000000000000000000000000000000000008152600401620004479062000aea565b60405180910390fd5b565b505050565b6000600560009054906101000a900460ff16905090565b8280546200047c9062000b3b565b90600052602060002090601f016020900481019282620004a05760008555620004ec565b82601f10620004bb57805160ff1916838001178555620004ec565b82800160010185558215620004ec579182015b82811115620004eb578251825591602001919060010190620004ce565b5b509050620004fb9190620004ff565b5090565b5b808211156200051a57600081600090555060010162000500565b5090565b6000604051905090565b600080fd5b600080fd5b600080fd5b600080fd5b6000601f19601f8301169050919050565b7f4e487b7100000000000000000000000000000000000000000000000000000000600052604160045260246000fd5b62000587826200053c565b810181811067ffffffffffffffff82111715620005a957620005a86200054d565b5b80604052505050565b6000620005be6200051e565b9050620005cc82826200057c565b919050565b600067ffffffffffffffff821115620005ef57620005ee6200054d565b5b620005fa826200053c565b9050602081019050919050565b60005b83811015620006275780820151818401526020810190506200060a565b8381111562000637576000848401525b50505050565b6000620006546200064e84620005d1565b620005b2565b90508281526020810184848401111562000673576200067262000537565b5b6200068084828562000607565b509392505050565b600082601f830112620006a0576200069f62000532565b5b8151620006b28482602086016200063d565b91505092915050565b60008060408385031215620006d557620006d462000528565b5b600083015167ffffffffffffffff811115620006f657620006f56200052d565b5b620007048582860162000688565b925050602083015167ffffffffffffffff8111156200072857620007276200052d565b5b620007368582860162000688565b9150509250929050565b7f4e487b7100000000000000000000000000000000000000000000000000000000600052601160045260246000fd5b60008160011c9050919050565b6000808291508390505b6001851115620007ce57808604811115620007a657620007a562000740565b5b6001851615620007b65780820291505b8081029050620007c6856200076f565b945062000786565b94509492505050565b600082620007e95760019050620008bc565b81620007f95760009050620008bc565b81600181146200081257600281146200081d5762000853565b6001915050620008bc565b60ff84111562000832576200083162000740565b5b8360020a9150848211156200084c576200084b62000740565b5b50620008bc565b5060208310610133831016604e8410600b84101617156200088d5782820a90508381111562000887576200088662000740565b5b620008bc565b6200089c84848460016200077c565b92509050818404811115620008b657620008b562000740565b5b81810290505b9392505050565b6000819050919050565b600060ff82169050919050565b6000620008e782620008c3565b9150620008f483620008cd565b9250620009237fffffffffffffffffffffffffffffffffffffffffffffffffffffffffffffffff8484620007d7565b905092915050565b60006200093882620008c3565b91506200094583620008c3565b9250817fffffffffffffffffffffffffffffffffffffffffffffffffffffffffffffffff048311821515161562000981576200098062000740565b5b828202905092915050565b600082825260208201905092915050565b7f45524332303a206d696e7420746f20746865207a65726f206164647265737300600082015250565b6000620009d5601f836200098c565b9150620009e2826200099d565b602082019050919050565b6000602082019050818103600083015262000a0881620009c6565b9050919050565b600062000a1c82620008c3565b915062000a2983620008c3565b9250827fffffffffffffffffffffffffffffffffffffffffffffffffffffffffffffffff0382111562000a615762000a6062000740565b5b828201905092915050565b62000a7781620008c3565b82525050565b600060208201905062000a94600083018462000a6c565b92915050565b7f5061757361626c653a2070617573656400000000000000000000000000000000600082015250565b600062000ad26010836200098c565b915062000adf8262000a9a565b602082019050919050565b6000602082019050818103600083015262000b058162000ac3565b9050919050565b7f4e487b7100000000000000000000000000000000000000000000000000000000600052602260045260246000fd5b6000600282049050600182168062000b5457607f821691505b6020821081141562000b6b5762000b6a62000b0c565b5b50919050565b6129468062000b816000396000f3fe608060405234801561001057600080fd5b50600436106101585760003560e01c806342966c68116100c357806395d89b411161007c57806395d89b41146103c5578063a217fddf146103e3578063a457c2d714610401578063a9059cbb14610431578063d547741f14610461578063dd62ed3e1461047d57610158565b806342966c68146103055780635c975abb1461032157806370a082311461033f57806379cc67901461036f5780638456cb591461038b57806391d148541461039557610158565b80632f2ff15d116101155780632f2ff15d14610259578063313ce5671461027557806336568abe1461029357806339509351146102af5780633f4ba83a146102df57806340c10f19146102e957610158565b806301ffc9a71461015d57806306fdde031461018d578063095ea7b3146101ab57806318160ddd146101db57806323b872dd146101f9578063248a9ca314610229575b600080fd5b61017760048036038101906101729190611a91565b6104ad565b6040516101849190611ad9565b60405180910390f35b6101956105f7565b6040516101a29190611b8d565b60405180910390f35b6101c560048036038101906101c09190611c43565b610689565b6040516101d29190611ad9565b60405180910390f35b6101e36106ac565b6040516101f09190611c92565b60405180910390f35b610213600480360381019061020e9190611cad565b6106b6565b6040516102209190611ad9565b60405180910390f35b610243600480360381019061023e9190611d36565b6106e5565b6040516102509190611d72565b60405180910390f35b610273600480360381019061026e9190611d8d565b610705565b005b61027d610726565b60405161028a9190611de9565b60405180910390f35b6102ad60048036038101906102a89190611d8d565b61072f565b005b6102c960048036038101906102c49190611c43565b6107b2565b6040516102d69190611ad9565b60405180910390f35b6102e76107e9565b005b61030360048036038101906102fe9190611c43565b610801565b005b61031f600480360381019061031a9190611e04565b61081d565b005b610329610831565b6040516103369190611ad9565b60405180910390f35b61035960048036038101906103549190611e31565b610848565b6040516103669190611c92565b60405180910390f35b61038960048036038101906103849190611c43565b610890565b005b6103936108b0565b005b6103af60048036038101906103aa9190611d8d565b6108c8565b6040516103bc9190611ad9565b60405180910390f35b6103cd610933565b6040516103da9190611b8d565b60405180910390f35b6103eb6109c5565b6040516103f89190611d72565b60405180910390f35b61041b60048036038101906104169190611c43565b6109cc565b6040516104289190611ad9565b60405180910390f35b61044b60048036038101906104469190611c43565b610a43565b6040516104589190611ad9565b60405180910390f35b61047b60048036038101906104769190611d8d565b610a66565b005b61049760048036038101906104929190611e5e565b610a87565b6040516104a49190611c92565b60405180910390f35b60007f36372b07000000000000000000000000000000000000000000000000000000007bffffffffffffffffffffffffffffffffffffffffffffffffffffffff1916827bffffffffffffffffffffffffffffffffffffffffffffffffffffffff1916148061057857507f3b5a0bf8000000000000000000000000000000000000000000000000000000007bffffffffffffffffffffffffffffffffffffffffffffffffffffffff1916827bffffffffffffffffffffffffffffffffffffffffffffffffffffffff1916145b806105e057507f5c975abb000000000000000000000000000000000000000000000000000000007bffffffffffffffffffffffffffffffffffffffffffffffffffffffff1916827bffffffffffffffffffffffffffffffffffffffffffffffffffffffff1916145b806105f057506105ef82610b13565b5b9050919050565b60606003805461060690611ecd565b80601f016020809104026020016040519081016040528092919081815260200182805461063290611ecd565b801561067f5780601f106106545761010080835404028352916020019161067f565b820191906000526020600020905b81548152906001019060200180831161066257829003601f168201915b5050505050905090565b600080610694610b8d565b90506106a1818585610b95565b600191505092915050565b6000600254905090565b6000806106c1610b8d565b90506106ce858285610d60565b6106d9858585610dec565b60019150509392505050565b600060066000838152602001908152602001600020600101549050919050565b61070e826106e5565b6107178161106d565b6107218383611081565b505050565b60006012905090565b610737610b8d565b73ffffffffffffffffffffffffffffffffffffffff168173ffffffffffffffffffffffffffffffffffffffff16146107a4576040517f08c379a000000000000000000000000000000000000000000000000000000000815260040161079b90611f71565b60405180910390fd5b6107ae8282611162565b5050565b6000806107bd610b8d565b90506107de8185856107cf8589610a87565b6107d99190611fc0565b610b95565b600191505092915050565b6000801b6107f68161106d565b6107fe611244565b50565b6000801b61080e8161106d565b61081883836112a7565b505050565b61082e610828610b8d565b82611407565b50565b6000600560009054906101000a900460ff16905090565b60008060008373ffffffffffffffffffffffffffffffffffffffff1673ffffffffffffffffffffffffffffffffffffffff168152602001908152602001600020549050919050565b6108a28261089c610b8d565b83610d60565b6108ac8282611407565b5050565b6000801b6108bd8161106d565b6108c56115de565b50565b60006006600084815260200190815260200160002060000160008373ffffffffffffffffffffffffffffffffffffffff1673ffffffffffffffffffffffffffffffffffffffff16815260200190815260200160002060009054906101000a900460ff16905092915050565b60606004805461094290611ecd565b80601f016020809104026020016040519081016040528092919081815260200182805461096e90611ecd565b80156109bb5780601f10610990576101008083540402835291602001916109bb565b820191906000526020600020905b81548152906001019060200180831161099e57829003601f168201915b5050505050905090565b6000801b81565b6000806109d7610b8d565b905060006109e58286610a87565b905083811015610a2a576040517f08c379a0000000000000000000000000000000000000000000000000000000008152600401610a2190612088565b60405180910390fd5b610a378286868403610b95565b60019250505092915050565b600080610a4e610b8d565b9050610a5b818585610dec565b600191505092915050565b610a6f826106e5565b610a788161106d565b610a828383611162565b505050565b6000600160008473ffffffffffffffffffffffffffffffffffffffff1673ffffffffffffffffffffffffffffffffffffffff16815260200190815260200160002060008373ffffffffffffffffffffffffffffffffffffffff1673ffffffffffffffffffffffffffffffffffffffff16815260200190815260200160002054905092915050565b505050565b60007f7965db0b000000000000000000000000000000000000000000000000000000007bffffffffffffffffffffffffffffffffffffffffffffffffffffffff1916827bffffffffffffffffffffffffffffffffffffffffffffffffffffffff19161480610b865750610b8582611641565b5b9050919050565b600033905090565b600073ffffffffffffffffffffffffffffffffffffffff168373ffffffffffffffffffffffffffffffffffffffff161415610c05576040517f08c379a0000000000000000000000000000000000000000000000000000000008152600401610bfc9061211a565b60405180910390fd5b600073ffffffffffffffffffffffffffffffffffffffff168273ffffffffffffffffffffffffffffffffffffffff161415610c75576040517f08c379a0000000000000000000000000000000000000000000000000000000008152600401610c6c906121ac565b60405180910390fd5b80600160008573ffffffffffffffffffffffffffffffffffffffff1673ffffffffffffffffffffffffffffffffffffffff16815260200190815260200160002060008473ffffffffffffffffffffffffffffffffffffffff1673ffffffffffffffffffffffffffffffffffffffff168152602001908152602001600020819055508173ffffffffffffffffffffffffffffffffffffffff168373ffffffffffffffffffffffffffffffffffffffff167f8c5be1e5ebec7d5bd14f71427d1e84f3dd0314c0f7b2291e5b200ac8c7c3b92583604051610d539190611c92565b60405180910390a3505050565b6000610d6c8484610a87565b90507fffffffffffffffffffffffffffffffffffffffffffffffffffffffffffffffff8114610de65781811015610dd8576040517f08c379a0000000000000000000000000000000000000000000000000000000008152600401610dcf90612218565b60405180910390fd5b610de58484848403610b95565b5b50505050565b600073ffffffffffffffffffffffffffffffffffffffff168373ffffffffffffffffffffffffffffffffffffffff161415610e5c576040517f08c379a0000000000000000000000000000000000000000000000000000000008152600401610e53906122aa565b60405180910390fd5b600073ffffffffffffffffffffffffffffffffffffffff168273ffffffffffffffffffffffffffffffffffffffff161415610ecc576040517f08c379a0000000000000000000000000000000000000000000000000000000008152600401610ec39061233c565b60405180910390fd5b610ed78383836116ab565b60008060008573ffffffffffffffffffffffffffffffffffffffff1673ffffffffffffffffffffffffffffffffffffffff16815260200190815260200160002054905081811015610f5d576040517f08c379a0000000000000000000000000000000000000000000000000000000008152600401610f54906123ce565b60405180910390fd5b8181036000808673ffffffffffffffffffffffffffffffffffffffff1673ffffffffffffffffffffffffffffffffffffffff16815260200190815260200160002081905550816000808573ffffffffffffffffffffffffffffffffffffffff1673ffffffffffffffffffffffffffffffffffffffff1681526020019081526020016000206000828254610ff09190611fc0565b925050819055508273ffffffffffffffffffffffffffffffffffffffff168473ffffffffffffffffffffffffffffffffffffffff167fddf252ad1be2c89b69c2b068fc378daa952ba7f163c4a11628f55a4df523b3ef846040516110549190611c92565b60405180910390a36110678484846116c3565b50505050565b61107e81611079610b8d565b6116c8565b50565b61108b82826108c8565b61115e5760016006600084815260200190815260200160002060000160008373ffffffffffffffffffffffffffffffffffffffff1673ffffffffffffffffffffffffffffffffffffffff16815260200190815260200160002060006101000a81548160ff021916908315150217905550611103610b8d565b73ffffffffffffffffffffffffffffffffffffffff168173ffffffffffffffffffffffffffffffffffffffff16837f2f8788117e7eff1d82e926ec794901d17c78024a50270940304540a733656f0d60405160405180910390a45b5050565b61116c82826108c8565b156112405760006006600084815260200190815260200160002060000160008373ffffffffffffffffffffffffffffffffffffffff1673ffffffffffffffffffffffffffffffffffffffff16815260200190815260200160002060006101000a81548160ff0219169083151502179055506111e5610b8d565b73ffffffffffffffffffffffffffffffffffffffff168173ffffffffffffffffffffffffffffffffffffffff16837ff6391f5c32d9c69d2a47ea670b442974b53935d1edc7fd64eb21e047a839171b60405160405180910390a45b5050565b61124c611765565b6000600560006101000a81548160ff0219169083151502179055507f5db9ee0a495bf2e6ff9c91a7834c1ba4fdd244a5e8aa4e537bd38aeae4b073aa611290610b8d565b60405161129d91906123fd565b60405180910390a1565b600073ffffffffffffffffffffffffffffffffffffffff168273ffffffffffffffffffffffffffffffffffffffff161415611317576040517f08c379a000000000000000000000000000000000000000000000000000000000815260040161130e90612464565b60405180910390fd5b611323600083836116ab565b80600260008282546113359190611fc0565b92505081905550806000808473ffffffffffffffffffffffffffffffffffffffff1673ffffffffffffffffffffffffffffffffffffffff168152602001908152602001600020600082825461138a9190611fc0565b925050819055508173ffffffffffffffffffffffffffffffffffffffff16600073ffffffffffffffffffffffffffffffffffffffff167fddf252ad1be2c89b69c2b068fc378daa952ba7f163c4a11628f55a4df523b3ef836040516113ef9190611c92565b60405180910390a3611403600083836116c3565b5050565b600073ffffffffffffffffffffffffffffffffffffffff168273ffffffffffffffffffffffffffffffffffffffff161415611477576040517f08c379a000000000000000000000000000000000000000000000000000000000815260040161146e906124f6565b60405180910390fd5b611483826000836116ab565b60008060008473ffffffffffffffffffffffffffffffffffffffff1673ffffffffffffffffffffffffffffffffffffffff16815260200190815260200160002054905081811015611509576040517f08c379a000000000000000000000000000000000000000000000000000000000815260040161150090612588565b60405180910390fd5b8181036000808573ffffffffffffffffffffffffffffffffffffffff1673ffffffffffffffffffffffffffffffffffffffff16815260200190815260200160002081905550816002600082825461156091906125a8565b92505081905550600073ffffffffffffffffffffffffffffffffffffffff168373ffffffffffffffffffffffffffffffffffffffff167fddf252ad1be2c89b69c2b068fc378daa952ba7f163c4a11628f55a4df523b3ef846040516115c59190611c92565b60405180910390a36115d9836000846116c3565b505050565b6115e66117ae565b6001600560006101000a81548160ff0219169083151502179055507f62e78cea01bee320cd4e420270b5ea74000d11b0c9f74754ebdbfc544b05a25861162a610b8d565b60405161163791906123fd565b60405180910390a1565b60007f01ffc9a7000000000000000000000000000000000000000000000000000000007bffffffffffffffffffffffffffffffffffffffffffffffffffffffff1916827bffffffffffffffffffffffffffffffffffffffffffffffffffffffff1916149050919050565b6116b36117ae565b6116be838383610b0e565b505050565b505050565b6116d282826108c8565b611761576116f78173ffffffffffffffffffffffffffffffffffffffff1660146117f8565b6117058360001c60206117f8565b6040516020016117169291906126b0565b6040516020818303038152906040526040517f08c379a00000000000000000000000000000000000000000000000000000000081526004016117589190611b8d565b60405180910390fd5b5050565b61176d610831565b6117ac576040517f08c379a00000000000000000000000000000000000000000000000000000000081526004016117a390612736565b60405180910390fd5b565b6117b6610831565b156117f6576040517f08c379a00000000000000000000000000000000000000000000000000000000081526004016117ed906127a2565b60405180910390fd5b565b60606000600283600261180b91906127c2565b6118159190611fc0565b67ffffffffffffffff81111561182e5761182d61281c565b5b6040519080825280601f01601f1916602001820160405280156118605781602001600182028036833780820191505090505b5090507f3000000000000000000000000000000000000000000000000000000000000000816000815181106118985761189761284b565b5b60200101907effffffffffffffffffffffffffffffffffffffffffffffffffffffffffffff1916908160001a9053507f7800000000000000000000000000000000000000000000000000000000000000816001815181106118fc576118fb61284b565b5b60200101907effffffffffffffffffffffffffffffffffffffffffffffffffffffffffffff1916908160001a9053506000600184600261193c91906127c2565b6119469190611fc0565b90505b60018111156119e6577f3031323334353637383961626364656600000000000000000000000000000000600f8616601081106119885761198761284b565b5b1a60f81b82828151811061199f5761199e61284b565b5b60200101907effffffffffffffffffffffffffffffffffffffffffffffffffffffffffffff1916908160001a905350600485901c9450806119df9061287a565b9050611949565b5060008414611a2a576040517f08c379a0000000000000000000000000000000000000000000000000000000008152600401611a21906128f0565b60405180910390fd5b8091505092915050565b600080fd5b60007fffffffff0000000000000000000000000000000000000000000000000000000082169050919050565b611a6e81611a39565b8114611a7957600080fd5b50565b600081359050611a8b81611a65565b92915050565b600060208284031215611aa757611aa6611a34565b5b6000611ab584828501611a7c565b91505092915050565b60008115159050919050565b611ad381611abe565b82525050565b6000602082019050611aee6000830184611aca565b92915050565b600081519050919050565b600082825260208201905092915050565b60005b83811015611b2e578082015181840152602081019050611b13565b83811115611b3d576000848401525b50505050565b6000601f19601f8301169050919050565b6000611b5f82611af4565b611b698185611aff565b9350611b79818560208601611b10565b611b8281611b43565b840191505092915050565b60006020820190508181036000830152611ba78184611b54565b905092915050565b600073ffffffffffffffffffffffffffffffffffffffff82169050919050565b6000611bda82611baf565b9050919050565b611bea81611bcf565b8114611bf557600080fd5b50565b600081359050611c0781611be1565b92915050565b6000819050919050565b611c2081611c0d565b8114611c2b57600080fd5b50565b600081359050611c3d81611c17565b92915050565b60008060408385031215611c5a57611c59611a34565b5b6000611c6885828601611bf8565b9250506020611c7985828601611c2e565b9150509250929050565b611c8c81611c0d565b82525050565b6000602082019050611ca76000830184611c83565b92915050565b600080600060608486031215611cc657611cc5611a34565b5b6000611cd486828701611bf8565b9350506020611ce586828701611bf8565b9250506040611cf686828701611c2e565b9150509250925092565b6000819050919050565b611d1381611d00565b8114611d1e57600080fd5b50565b600081359050611d3081611d0a565b92915050565b600060208284031215611d4c57611d4b611a34565b5b6000611d5a84828501611d21565b91505092915050565b611d6c81611d00565b82525050565b6000602082019050611d876000830184611d63565b92915050565b60008060408385031215611da457611da3611a34565b5b6000611db285828601611d21565b9250506020611dc385828601611bf8565b9150509250929050565b600060ff82169050919050565b611de381611dcd565b82525050565b6000602082019050611dfe6000830184611dda565b92915050565b600060208284031215611e1a57611e19611a34565b5b6000611e2884828501611c2e565b91505092915050565b600060208284031215611e4757611e46611a34565b5b6000611e5584828501611bf8565b91505092915050565b60008060408385031215611e7557611e74611a34565b5b6000611e8385828601611bf8565b9250506020611e9485828601611bf8565b9150509250929050565b7f4e487b7100000000000000000000000000000000000000000000000000000000600052602260045260246000fd5b60006002820490506001821680611ee557607f821691505b60208210811415611ef957611ef8611e9e565b5b50919050565b7f416363657373436f6e74726f6c3a2063616e206f6e6c792072656e6f756e636560008201527f20726f6c657320666f722073656c660000000000000000000000000000000000602082015250565b6000611f5b602f83611aff565b9150611f6682611eff565b604082019050919050565b60006020820190508181036000830152611f8a81611f4e565b9050919050565b7f4e487b7100000000000000000000000000000000000000000000000000000000600052601160045260246000fd5b6000611fcb82611c0d565b9150611fd683611c0d565b9250827fffffffffffffffffffffffffffffffffffffffffffffffffffffffffffffffff0382111561200b5761200a611f91565b5b828201905092915050565b7f45524332303a2064656372656173656420616c6c6f77616e63652062656c6f7760008201527f207a65726f000000000000000000000000000000000000000000000000000000602082015250565b6000612072602583611aff565b915061207d82612016565b604082019050919050565b600060208201905081810360008301526120a181612065565b9050919050565b7f45524332303a20617070726f76652066726f6d20746865207a65726f2061646460008201527f7265737300000000000000000000000000000000000000000000000000000000602082015250565b6000612104602483611aff565b915061210f826120a8565b604082019050919050565b60006020820190508181036000830152612133816120f7565b9050919050565b7f45524332303a20617070726f766520746f20746865207a65726f20616464726560008201527f7373000000000000000000000000000000000000000000000000000000000000602082015250565b6000612196602283611aff565b91506121a18261213a565b604082019050919050565b600060208201905081810360008301526121c581612189565b9050919050565b7f45524332303a20696e73756666696369656e7420616c6c6f77616e6365000000600082015250565b6000612202601d83611aff565b915061220d826121cc565b602082019050919050565b60006020820190508181036000830152612231816121f5565b9050919050565b7f45524332303a207472616e736665722066726f6d20746865207a65726f20616460008201527f6472657373000000000000000000000000000000000000000000000000000000602082015250565b6000612294602583611aff565b915061229f82612238565b604082019050919050565b600060208201905081810360008301526122c381612287565b9050919050565b7f45524332303a207472616e7366657220746f20746865207a65726f206164647260008201527f6573730000000000000000000000000000000000000000000000000000000000602082015250565b6000612326602383611aff565b9150612331826122ca565b604082019050919050565b6000602082019050818103600083015261235581612319565b9050919050565b7f45524332303a207472616e7366657220616d6f756e742065786365656473206260008201527f616c616e63650000000000000000000000000000000000000000000000000000602082015250565b60006123b8602683611aff565b91506123c38261235c565b604082019050919050565b600060208201905081810360008301526123e7816123ab565b9050919050565b6123f781611bcf565b82525050565b600060208201905061241260008301846123ee565b92915050565b7f45524332303a206d696e7420746f20746865207a65726f206164647265737300600082015250565b600061244e601f83611aff565b915061245982612418565b602082019050919050565b6000602082019050818103600083015261247d81612441565b9050919050565b7f45524332303a206275726e2066726f6d20746865207a65726f2061646472657360008201527f7300000000000000000000000000000000000000000000000000000000000000602082015250565b60006124e0602183611aff565b91506124eb82612484565b604082019050919050565b6000602082019050818103600083015261250f816124d3565b9050919050565b7f45524332303a206275726e20616d6f756e7420657863656564732062616c616e60008201527f6365000000000000000000000000000000000000000000000000000000000000602082015250565b6000612572602283611aff565b915061257d82612516565b604082019050919050565b600060208201905081810360008301526125a181612565565b9050919050565b60006125b382611c0d565b91506125be83611c0d565b9250828210156125d1576125d0611f91565b5b828203905092915050565b600081905092915050565b7f416363657373436f6e74726f6c3a206163636f756e7420000000000000000000600082015250565b600061261d6017836125dc565b9150612628826125e7565b601782019050919050565b600061263e82611af4565b61264881856125dc565b9350612658818560208601611b10565b80840191505092915050565b7f206973206d697373696e6720726f6c6520000000000000000000000000000000600082015250565b600061269a6011836125dc565b91506126a582612664565b601182019050919050565b60006126bb82612610565b91506126c78285612633565b91506126d28261268d565b91506126de8284612633565b91508190509392505050565b7f5061757361626c653a206e6f7420706175736564000000000000000000000000600082015250565b6000612720601483611aff565b915061272b826126ea565b602082019050919050565b6000602082019050818103600083015261274f81612713565b9050919050565b7f5061757361626c653a2070617573656400000000000000000000000000000000600082015250565b600061278c601083611aff565b915061279782612756565b602082019050919050565b600060208201905081810360008301526127bb8161277f565b9050919050565b60006127cd82611c0d565b91506127d883611c0d565b9250817fffffffffffffffffffffffffffffffffffffffffffffffffffffffffffffffff048311821515161561281157612810611f91565b5b828202905092915050565b7f4e487b7100000000000000000000000000000000000000000000000000000000600052604160045260246000fd5b7f4e487b7100000000000000000000000000000000000000000000000000000000600052603260045260246000fd5b600061288582611c0d565b9150600082141561289957612898611f91565b5b600182039050919050565b7f537472696e67733a20686578206c656e67746820696e73756666696369656e74600082015250565b60006128da602083611aff565b91506128e5826128a4565b602082019050919050565b60006020820190508181036000830152612909816128cd565b905091905056fea264697066735822122076bdac2e8151e6533ace2e0ce820b53e0dcf39a3a9809490e28da42a1ad2c14a64736f6c63430008090033",
  "devdoc": {
    "kind": "dev",
    "methods": {
      "allowance(address,address)": {
        "details": "See {IERC20-allowance}."
      },
      "approve(address,uint256)": {
        "details": "See {IERC20-approve}. NOTE: If `amount` is the maximum `uint256`, the allowance is not updated on `transferFrom`. This is semantically equivalent to an infinite approval. Requirements: - `spender` cannot be the zero address."
      },
      "balanceOf(address)": {
        "details": "See {IERC20-balanceOf}."
      },
      "burn(uint256)": {
        "details": "Destroys `amount` tokens from `account`, reducing the total supply. Emits a Transfer event with `to` set to the zero address. Requirements: - `account` cannot be the zero address. - `account` must have at least `amount` tokens.",
        "params": {
          "amount": "The amount of tokens to burn from the sender of the transaction, denominated by the decimals() function"
        }
      },
      "burnFrom(address,uint256)": {
        "details": "Destroys `amount` tokens from `account`, deducting from the caller's allowance. See {ERC20-_burn} and {ERC20-allowance}. Requirements: - the caller must have allowance for ``accounts``'s tokens of at least `amount`."
      },
      "decimals()": {
        "details": "Returns the number of decimals used to get its user representation. For example, if `decimals` equals `2`, a balance of `505` tokens should be displayed to a user as `5.05` (`505 / 10 ** 2`). Tokens usually opt for a value of 18, imitating the relationship between Ether and Wei. This is the value {ERC20} uses, unless this function is overridden; NOTE: This information is only used for _display_ purposes: it in no way affects any of the arithmetic of the contract, including {IERC20-balanceOf} and {IERC20-transfer}."
      },
      "decreaseAllowance(address,uint256)": {
        "details": "Atomically decreases the allowance granted to `spender` by the caller. This is an alternative to {approve} that can be used as a mitigation for problems described in {IERC20-approve}. Emits an {Approval} event indicating the updated allowance. Requirements: - `spender` cannot be the zero address. - `spender` must have allowance for the caller of at least `subtractedValue`."
      },
      "getRoleAdmin(bytes32)": {
        "details": "Returns the admin role that controls `role`. See {grantRole} and {revokeRole}. To change a role's admin, use {_setRoleAdmin}."
      },
      "grantRole(bytes32,address)": {
        "details": "Grants `role` to `account`. If `account` had not been already granted `role`, emits a {RoleGranted} event. Requirements: - the caller must have ``role``'s admin role. May emit a {RoleGranted} event."
      },
      "hasRole(bytes32,address)": {
        "details": "Returns `true` if `account` has been granted `role`."
      },
      "increaseAllowance(address,uint256)": {
        "details": "Atomically increases the allowance granted to `spender` by the caller. This is an alternative to {approve} that can be used as a mitigation for problems described in {IERC20-approve}. Emits an {Approval} event indicating the updated allowance. Requirements: - `spender` cannot be the zero address."
      },
      "mint(address,uint256)": {
        "details": "Creates `amount` tokens and assigns them to `account`, increasing the total supply. Emits a Transfer event with `from` set to the zero address. Requirements: - `account` cannot be the zero address. - `msg.sender` needs the DEFAULT_ADMIN_ROLE.",
        "params": {
          "amount": "The amount of tokens to mint, denominated by the decimals() function",
          "to": "The address to mint the new tokens into"
        }
      },
      "name()": {
        "details": "Returns the name of the token."
      },
      "pause()": {
        "details": "Triggers stopped state. Requirements: - The contract must not be paused. - The sender of the transaction must have the DEFAULT_ADMIN_ROLE"
      },
      "paused()": {
        "details": "Returns true if the contract is paused, and false otherwise."
      },
      "renounceRole(bytes32,address)": {
        "details": "Revokes `role` from the calling account. Roles are often managed via {grantRole} and {revokeRole}: this function's purpose is to provide a mechanism for accounts to lose their privileges if they are compromised (such as when a trusted device is misplaced). If the calling account had been revoked `role`, emits a {RoleRevoked} event. Requirements: - the caller must be `account`. May emit a {RoleRevoked} event."
      },
      "revokeRole(bytes32,address)": {
        "details": "Revokes `role` from `account`. If `account` had been granted `role`, emits a {RoleRevoked} event. Requirements: - the caller must have ``role``'s admin role. May emit a {RoleRevoked} event."
      },
      "symbol()": {
        "details": "Returns the symbol of the token, usually a shorter version of the name."
      },
      "totalSupply()": {
        "details": "See {IERC20-totalSupply}."
      },
      "transfer(address,uint256)": {
        "details": "See {IERC20-transfer}. Requirements: - `to` cannot be the zero address. - the caller must have a balance of at least `amount`."
      },
      "transferFrom(address,address,uint256)": {
        "details": "See {IERC20-transferFrom}. Emits an {Approval} event indicating the updated allowance. This is not required by the EIP. See the note at the beginning of {ERC20}. NOTE: Does not update the allowance if the current allowance is the maximum `uint256`. Requirements: - `from` and `to` cannot be the zero address. - `from` must have a balance of at least `amount`. - the caller must have allowance for ``from``'s tokens of at least `amount`."
      },
      "unpause()": {
        "details": "Returns to normal state. Requirements: - The contract must be paused. - The sender of the transaction must have the DEFAULT_ADMIN_ROLE"
      }
    },
    "title": "GenericToken",
    "version": 1
  },
  "userdoc": {
    "kind": "user",
    "methods": {},
    "notice": "This contract is a generic token adhering to the ERC20 standard,  using the OpenZeppelin template libary for battletested functionality.  It incorporates the standard ERC20 functions, enhanced with Minting  and Burning, Pausable in case of emergencies and AccessControl for locking  down the administrative functions.  For demonstrative purposes, 1 million GT tokens are pre-mined to the address  deploying this contract.",
    "version": 1
  },
  "storageLayout": {
    "storage": [
      {
        "astId": 669,
        "contract": "contracts/FestivalToken.sol:FestivalToken",
        "label": "_balances",
        "offset": 0,
        "slot": "0",
        "type": "t_mapping(t_address,t_uint256)"
      },
      {
        "astId": 675,
        "contract": "contracts/FestivalToken.sol:FestivalToken",
        "label": "_allowances",
        "offset": 0,
        "slot": "1",
        "type": "t_mapping(t_address,t_mapping(t_address,t_uint256))"
      },
      {
        "astId": 677,
        "contract": "contracts/FestivalToken.sol:FestivalToken",
        "label": "_totalSupply",
        "offset": 0,
        "slot": "2",
        "type": "t_uint256"
      },
      {
        "astId": 679,
        "contract": "contracts/FestivalToken.sol:FestivalToken",
        "label": "_name",
        "offset": 0,
        "slot": "3",
        "type": "t_string_storage"
      },
      {
        "astId": 681,
        "contract": "contracts/FestivalToken.sol:FestivalToken",
        "label": "_symbol",
        "offset": 0,
        "slot": "4",
        "type": "t_string_storage"
      },
      {
        "astId": 523,
        "contract": "contracts/FestivalToken.sol:FestivalToken",
        "label": "_paused",
        "offset": 0,
        "slot": "5",
        "type": "t_bool"
      },
      {
        "astId": 24,
        "contract": "contracts/FestivalToken.sol:FestivalToken",
        "label": "_roles",
        "offset": 0,
        "slot": "6",
        "type": "t_mapping(t_bytes32,t_struct(RoleData)19_storage)"
      }
    ],
    "types": {
      "t_address": {
        "encoding": "inplace",
        "label": "address",
        "numberOfBytes": "20"
      },
      "t_bool": {
        "encoding": "inplace",
        "label": "bool",
        "numberOfBytes": "1"
      },
      "t_bytes32": {
        "encoding": "inplace",
        "label": "bytes32",
        "numberOfBytes": "32"
      },
      "t_mapping(t_address,t_bool)": {
        "encoding": "mapping",
        "key": "t_address",
        "label": "mapping(address => bool)",
        "numberOfBytes": "32",
        "value": "t_bool"
      },
      "t_mapping(t_address,t_mapping(t_address,t_uint256))": {
        "encoding": "mapping",
        "key": "t_address",
        "label": "mapping(address => mapping(address => uint256))",
        "numberOfBytes": "32",
        "value": "t_mapping(t_address,t_uint256)"
      },
      "t_mapping(t_address,t_uint256)": {
        "encoding": "mapping",
        "key": "t_address",
        "label": "mapping(address => uint256)",
        "numberOfBytes": "32",
        "value": "t_uint256"
      },
      "t_mapping(t_bytes32,t_struct(RoleData)19_storage)": {
        "encoding": "mapping",
        "key": "t_bytes32",
        "label": "mapping(bytes32 => struct AccessControl.RoleData)",
        "numberOfBytes": "32",
        "value": "t_struct(RoleData)19_storage"
      },
      "t_string_storage": {
        "encoding": "bytes",
        "label": "string",
        "numberOfBytes": "32"
      },
      "t_struct(RoleData)19_storage": {
        "encoding": "inplace",
        "label": "struct AccessControl.RoleData",
        "members": [
          {
            "astId": 16,
            "contract": "contracts/FestivalToken.sol:FestivalToken",
            "label": "members",
            "offset": 0,
            "slot": "0",
            "type": "t_mapping(t_address,t_bool)"
          },
          {
            "astId": 18,
            "contract": "contracts/FestivalToken.sol:FestivalToken",
            "label": "adminRole",
            "offset": 0,
            "slot": "1",
            "type": "t_bytes32"
          }
        ],
        "numberOfBytes": "64"
      },
      "t_uint256": {
        "encoding": "inplace",
        "label": "uint256",
        "numberOfBytes": "32"
      }
    }
  }
}