{
  "address": "0x4F722e21783bc086887dfAb182F0B7Ac1c8003C6",
  "abi": [
    {
      "inputs": [
        {
          "internalType": "string",
          "name": "name_",
          "type": "string"
        },
        {
          "internalType": "string",
          "name": "symbol_",
          "type": "string"
        },
        {
          "internalType": "string",
          "name": "baseTokenURI_",
          "type": "string"
        },
        {
          "internalType": "contract FestivalToken",
          "name": "token_",
          "type": "address"
        }
      ],
      "stateMutability": "nonpayable",
      "type": "constructor"
    },
    {
      "anonymous": false,
      "inputs": [
        {
          "indexed": false,
          "internalType": "address",
          "name": "owner",
          "type": "address"
        },
        {
          "indexed": false,
          "internalType": "uint256",
          "name": "ticketId",
          "type": "uint256"
        },
        {
          "indexed": false,
          "internalType": "uint256",
          "name": "sellingPrice",
          "type": "uint256"
        }
      ],
      "name": "AdjustListing",
      "type": "event"
    },
    {
      "anonymous": false,
      "inputs": [
        {
          "indexed": true,
          "internalType": "address",
          "name": "owner",
          "type": "address"
        },
        {
          "indexed": true,
          "internalType": "address",
          "name": "approved",
          "type": "address"
        },
        {
          "indexed": true,
          "internalType": "uint256",
          "name": "tokenId",
          "type": "uint256"
        }
      ],
      "name": "Approval",
      "type": "event"
    },
    {
      "anonymous": false,
      "inputs": [
        {
          "indexed": true,
          "internalType": "address",
          "name": "owner",
          "type": "address"
        },
        {
          "indexed": true,
          "internalType": "address",
          "name": "operator",
          "type": "address"
        },
        {
          "indexed": false,
          "internalType": "bool",
          "name": "approved",
          "type": "bool"
        }
      ],
      "name": "ApprovalForAll",
      "type": "event"
    },
    {
      "anonymous": false,
      "inputs": [
        {
          "indexed": false,
          "internalType": "address",
          "name": "account",
          "type": "address"
        }
      ],
      "name": "MintPaused",
      "type": "event"
    },
    {
      "anonymous": false,
      "inputs": [
        {
          "indexed": false,
          "internalType": "address",
          "name": "account",
          "type": "address"
        }
      ],
      "name": "MintUnpaused",
      "type": "event"
    },
    {
      "anonymous": false,
      "inputs": [
        {
          "indexed": true,
          "internalType": "address",
          "name": "previousOwner",
          "type": "address"
        },
        {
          "indexed": true,
          "internalType": "address",
          "name": "newOwner",
          "type": "address"
        }
      ],
      "name": "OwnershipTransferred",
      "type": "event"
    },
    {
      "anonymous": false,
      "inputs": [
        {
          "indexed": false,
          "internalType": "address",
          "name": "account",
          "type": "address"
        }
      ],
      "name": "Paused",
      "type": "event"
    },
    {
      "anonymous": false,
      "inputs": [
        {
          "indexed": false,
          "internalType": "address",
          "name": "buyer",
          "type": "address"
        },
        {
          "indexed": false,
          "internalType": "uint256",
          "name": "ticketId",
          "type": "uint256"
        }
      ],
      "name": "PublicMint",
      "type": "event"
    },
    {
      "anonymous": false,
      "inputs": [
        {
          "indexed": false,
          "internalType": "address",
          "name": "buyer",
          "type": "address"
        },
        {
          "indexed": false,
          "internalType": "address",
          "name": "seller",
          "type": "address"
        },
        {
          "indexed": false,
          "internalType": "uint256",
          "name": "sellingPrice",
          "type": "uint256"
        },
        {
          "indexed": false,
          "internalType": "uint256",
          "name": "commissionPrice",
          "type": "uint256"
        }
      ],
      "name": "PurchaseListing",
      "type": "event"
    },
    {
      "anonymous": false,
      "inputs": [
        {
          "indexed": false,
          "internalType": "address",
          "name": "owner",
          "type": "address"
        },
        {
          "indexed": false,
          "internalType": "uint256",
          "name": "ticketId",
          "type": "uint256"
        }
      ],
      "name": "RemoveListing",
      "type": "event"
    },
    {
      "anonymous": false,
      "inputs": [
        {
          "indexed": false,
          "internalType": "address",
          "name": "owner",
          "type": "address"
        },
        {
          "indexed": false,
          "internalType": "uint256",
          "name": "ticketId",
          "type": "uint256"
        },
        {
          "indexed": false,
          "internalType": "uint256",
          "name": "sellingPrice",
          "type": "uint256"
        }
      ],
      "name": "SetListing",
      "type": "event"
    },
    {
      "anonymous": false,
      "inputs": [
        {
          "indexed": true,
          "internalType": "address",
          "name": "from",
          "type": "address"
        },
        {
          "indexed": true,
          "internalType": "address",
          "name": "to",
          "type": "address"
        },
        {
          "indexed": true,
          "internalType": "uint256",
          "name": "tokenId",
          "type": "uint256"
        }
      ],
      "name": "Transfer",
      "type": "event"
    },
    {
      "anonymous": false,
      "inputs": [
        {
          "indexed": false,
          "internalType": "address",
          "name": "account",
          "type": "address"
        }
      ],
      "name": "Unpaused",
      "type": "event"
    },
    {
      "inputs": [],
      "name": "MAX_PER_TX",
      "outputs": [
        {
          "internalType": "uint256",
          "name": "",
          "type": "uint256"
        }
      ],
      "stateMutability": "view",
      "type": "function"
    },
    {
      "inputs": [],
      "name": "MAX_SUPPLY",
      "outputs": [
        {
          "internalType": "uint256",
          "name": "",
          "type": "uint256"
        }
      ],
      "stateMutability": "view",
      "type": "function"
    },
    {
      "inputs": [],
      "name": "PRICE",
      "outputs": [
        {
          "internalType": "uint256",
          "name": "",
          "type": "uint256"
        }
      ],
      "stateMutability": "view",
      "type": "function"
    },
    {
      "inputs": [
        {
          "internalType": "uint256",
          "name": "ticketId",
          "type": "uint256"
        },
        {
          "internalType": "uint256",
          "name": "sellingPrice_",
          "type": "uint256"
        }
      ],
      "name": "adjustListing",
      "outputs": [],
      "stateMutability": "nonpayable",
      "type": "function"
    },
    {
      "inputs": [
        {
          "internalType": "address",
          "name": "to",
          "type": "address"
        },
        {
          "internalType": "uint256",
          "name": "tokenId",
          "type": "uint256"
        }
      ],
      "name": "approve",
      "outputs": [],
      "stateMutability": "nonpayable",
      "type": "function"
    },
    {
      "inputs": [
        {
          "internalType": "address",
          "name": "owner",
          "type": "address"
        }
      ],
      "name": "balanceOf",
      "outputs": [
        {
          "internalType": "uint256",
          "name": "",
          "type": "uint256"
        }
      ],
      "stateMutability": "view",
      "type": "function"
    },
    {
      "inputs": [
        {
          "internalType": "uint256",
          "name": "tokenId",
          "type": "uint256"
        }
      ],
      "name": "burn",
      "outputs": [],
      "stateMutability": "nonpayable",
      "type": "function"
    },
    {
      "inputs": [
        {
          "internalType": "uint256",
          "name": "tokenId",
          "type": "uint256"
        }
      ],
      "name": "getApproved",
      "outputs": [
        {
          "internalType": "address",
          "name": "",
          "type": "address"
        }
      ],
      "stateMutability": "view",
      "type": "function"
    },
    {
      "inputs": [
        {
          "internalType": "uint256",
          "name": "ticketId",
          "type": "uint256"
        }
      ],
      "name": "getCurrentPrice",
      "outputs": [
        {
          "internalType": "uint256",
          "name": "",
          "type": "uint256"
        }
      ],
      "stateMutability": "view",
      "type": "function"
    },
    {
      "inputs": [
        {
          "internalType": "uint256",
          "name": "ticketId",
          "type": "uint256"
        }
      ],
      "name": "getForSale",
      "outputs": [
        {
          "internalType": "bool",
          "name": "",
          "type": "bool"
        }
      ],
      "stateMutability": "view",
      "type": "function"
    },
    {
      "inputs": [
        {
          "internalType": "uint256",
          "name": "ticketId",
          "type": "uint256"
        }
      ],
      "name": "getSellingPrice",
      "outputs": [
        {
          "internalType": "uint256",
          "name": "",
          "type": "uint256"
        }
      ],
      "stateMutability": "view",
      "type": "function"
    },
    {
      "inputs": [
        {
          "internalType": "address",
          "name": "owner",
          "type": "address"
        },
        {
          "internalType": "address",
          "name": "operator",
          "type": "address"
        }
      ],
      "name": "isApprovedForAll",
      "outputs": [
        {
          "internalType": "bool",
          "name": "",
          "type": "bool"
        }
      ],
      "stateMutability": "view",
      "type": "function"
    },
    {
      "inputs": [],
      "name": "mintPaused",
      "outputs": [
        {
          "internalType": "bool",
          "name": "",
          "type": "bool"
        }
      ],
      "stateMutability": "view",
      "type": "function"
    },
    {
      "inputs": [
        {
          "internalType": "uint256",
          "name": "commissionPercentage",
          "type": "uint256"
        }
      ],
      "name": "monetise",
      "outputs": [],
      "stateMutability": "nonpayable",
      "type": "function"
    },
    {
      "inputs": [],
      "name": "name",
      "outputs": [
        {
          "internalType": "string",
          "name": "",
          "type": "string"
        }
      ],
      "stateMutability": "view",
      "type": "function"
    },
    {
      "inputs": [],
      "name": "owner",
      "outputs": [
        {
          "internalType": "address",
          "name": "",
          "type": "address"
        }
      ],
      "stateMutability": "view",
      "type": "function"
    },
    {
      "inputs": [
        {
          "internalType": "uint256",
          "name": "tokenId",
          "type": "uint256"
        }
      ],
      "name": "ownerOf",
      "outputs": [
        {
          "internalType": "address",
          "name": "",
          "type": "address"
        }
      ],
      "stateMutability": "view",
      "type": "function"
    },
    {
      "inputs": [],
      "name": "pause",
      "outputs": [],
      "stateMutability": "nonpayable",
      "type": "function"
    },
    {
      "inputs": [],
      "name": "pauseMint",
      "outputs": [],
      "stateMutability": "nonpayable",
      "type": "function"
    },
    {
      "inputs": [],
      "name": "paused",
      "outputs": [
        {
          "internalType": "bool",
          "name": "",
          "type": "bool"
        }
      ],
      "stateMutability": "view",
      "type": "function"
    },
    {
      "inputs": [
        {
          "internalType": "uint256",
          "name": "count",
          "type": "uint256"
        }
      ],
      "name": "publicMint",
      "outputs": [],
      "stateMutability": "payable",
      "type": "function"
    },
    {
      "inputs": [
        {
          "internalType": "uint256",
          "name": "ticketId",
          "type": "uint256"
        },
        {
          "internalType": "uint256",
          "name": "value",
          "type": "uint256"
        }
      ],
      "name": "purchaseListing",
      "outputs": [],
      "stateMutability": "payable",
      "type": "function"
    },
    {
      "inputs": [
        {
          "internalType": "uint256",
          "name": "ticketId",
          "type": "uint256"
        }
      ],
      "name": "removeListing",
      "outputs": [],
      "stateMutability": "nonpayable",
      "type": "function"
    },
    {
      "inputs": [],
      "name": "renounceOwnership",
      "outputs": [],
      "stateMutability": "nonpayable",
      "type": "function"
    },
    {
      "inputs": [
        {
          "internalType": "address",
          "name": "from",
          "type": "address"
        },
        {
          "internalType": "address",
          "name": "to",
          "type": "address"
        },
        {
          "internalType": "uint256",
          "name": "tokenId",
          "type": "uint256"
        }
      ],
      "name": "safeTransferFrom",
      "outputs": [],
      "stateMutability": "nonpayable",
      "type": "function"
    },
    {
      "inputs": [
        {
          "internalType": "address",
          "name": "from",
          "type": "address"
        },
        {
          "internalType": "address",
          "name": "to",
          "type": "address"
        },
        {
          "internalType": "uint256",
          "name": "tokenId",
          "type": "uint256"
        },
        {
          "internalType": "bytes",
          "name": "data",
          "type": "bytes"
        }
      ],
      "name": "safeTransferFrom",
      "outputs": [],
      "stateMutability": "nonpayable",
      "type": "function"
    },
    {
      "inputs": [
        {
          "internalType": "address",
          "name": "operator",
          "type": "address"
        },
        {
          "internalType": "bool",
          "name": "approved",
          "type": "bool"
        }
      ],
      "name": "setApprovalForAll",
      "outputs": [],
      "stateMutability": "nonpayable",
      "type": "function"
    },
    {
      "inputs": [
        {
          "internalType": "string",
          "name": "baseTokenURI_",
          "type": "string"
        }
      ],
      "name": "setBaseURI",
      "outputs": [],
      "stateMutability": "nonpayable",
      "type": "function"
    },
    {
      "inputs": [
        {
          "internalType": "uint256",
          "name": "ticketId",
          "type": "uint256"
        },
        {
          "internalType": "uint256",
          "name": "sellingPrice_",
          "type": "uint256"
        }
      ],
      "name": "setListing",
      "outputs": [],
      "stateMutability": "nonpayable",
      "type": "function"
    },
    {
      "inputs": [],
      "name": "startPublicSale",
      "outputs": [],
      "stateMutability": "nonpayable",
      "type": "function"
    },
    {
      "inputs": [
        {
          "internalType": "bytes4",
          "name": "interfaceId",
          "type": "bytes4"
        }
      ],
      "name": "supportsInterface",
      "outputs": [
        {
          "internalType": "bool",
          "name": "",
          "type": "bool"
        }
      ],
      "stateMutability": "view",
      "type": "function"
    },
    {
      "inputs": [],
      "name": "symbol",
      "outputs": [
        {
          "internalType": "string",
          "name": "",
          "type": "string"
        }
      ],
      "stateMutability": "view",
      "type": "function"
    },
    {
      "inputs": [
        {
          "internalType": "uint256",
          "name": "index",
          "type": "uint256"
        }
      ],
      "name": "tokenByIndex",
      "outputs": [
        {
          "internalType": "uint256",
          "name": "",
          "type": "uint256"
        }
      ],
      "stateMutability": "view",
      "type": "function"
    },
    {
      "inputs": [
        {
          "internalType": "address",
          "name": "owner",
          "type": "address"
        },
        {
          "internalType": "uint256",
          "name": "index",
          "type": "uint256"
        }
      ],
      "name": "tokenOfOwnerByIndex",
      "outputs": [
        {
          "internalType": "uint256",
          "name": "",
          "type": "uint256"
        }
      ],
      "stateMutability": "view",
      "type": "function"
    },
    {
      "inputs": [
        {
          "internalType": "uint256",
          "name": "tokenId",
          "type": "uint256"
        }
      ],
      "name": "tokenURI",
      "outputs": [
        {
          "internalType": "string",
          "name": "",
          "type": "string"
        }
      ],
      "stateMutability": "view",
      "type": "function"
    },
    {
      "inputs": [],
      "name": "totalSupply",
      "outputs": [
        {
          "internalType": "uint256",
          "name": "",
          "type": "uint256"
        }
      ],
      "stateMutability": "view",
      "type": "function"
    },
    {
      "inputs": [
        {
          "internalType": "address",
          "name": "from",
          "type": "address"
        },
        {
          "internalType": "address",
          "name": "to",
          "type": "address"
        },
        {
          "internalType": "uint256",
          "name": "tokenId",
          "type": "uint256"
        }
      ],
      "name": "transferFrom",
      "outputs": [],
      "stateMutability": "nonpayable",
      "type": "function"
    },
    {
      "inputs": [
        {
          "internalType": "address",
          "name": "newOwner",
          "type": "address"
        }
      ],
      "name": "transferOwnership",
      "outputs": [],
      "stateMutability": "nonpayable",
      "type": "function"
    },
    {
      "inputs": [],
      "name": "unpause",
      "outputs": [],
      "stateMutability": "nonpayable",
      "type": "function"
    },
    {
      "inputs": [],
      "name": "unpauseMint",
      "outputs": [],
      "stateMutability": "nonpayable",
      "type": "function"
    },
    {
      "inputs": [],
      "name": "wallet",
      "outputs": [
        {
          "internalType": "address",
          "name": "",
          "type": "address"
        }
      ],
      "stateMutability": "view",
      "type": "function"
    },
    {
      "inputs": [],
      "name": "withdraw",
      "outputs": [],
      "stateMutability": "nonpayable",
      "type": "function"
    }
  ],
  "transactionHash": "0xc5969d3a0502c29525e7e50dbe703fdf88f44f1b7c40a2a5d86b36243c59ea2c",
  "args": [
    "FestivalNFT",
    "FNFT",
    "https://gateway-festivalstorage-eafc.settlemint.com/ipfs/QmUczjxs9UYvSjufENGV9qzw17Spo3o4EVFDQKSm3U9b1C?filename=SETTLEMINT_TEST.jpg",
    "0x2460668148DB97441b9beacfe93A0C6dB7632DA1"
  ],
  "numDeployments": 1,
  "solcInputHash": "589f93bfe56eb287c3206c067720a113",
  "bytecode": "0x60a06040526000600e60006101000a81548160ff0219169083151502179055506000600e60016101000a81548160ff0219169083151502179055506000600f553480156200004c57600080fd5b5060405162005f2338038062005f23833981810160405281019062000072919062000541565b838381600090805190602001906200008c9291906200027b565b508060019080519060200190620000a59291906200027b565b5050506000600a60006101000a81548160ff0219169083151502179055506000600a60016101000a81548160ff021916908315150217905550620000fe620000f2620001ad60201b60201c565b620001b560201b60201c565b6001600b8190555081600d90805190602001906200011e9291906200027b565b506200012f620001ad60201b60201c565b73ffffffffffffffffffffffffffffffffffffffff1660808173ffffffffffffffffffffffffffffffffffffffff168152505080601160006101000a81548173ffffffffffffffffffffffffffffffffffffffff021916908373ffffffffffffffffffffffffffffffffffffffff1602179055505050505062000675565b600033905090565b6000600a60029054906101000a900473ffffffffffffffffffffffffffffffffffffffff16905081600a60026101000a81548173ffffffffffffffffffffffffffffffffffffffff021916908373ffffffffffffffffffffffffffffffffffffffff1602179055508173ffffffffffffffffffffffffffffffffffffffff168173ffffffffffffffffffffffffffffffffffffffff167f8be0079c531659141344cd1fd0a4f28419497f9722a3daafe3b4186f6b6457e060405160405180910390a35050565b82805462000289906200063f565b90600052602060002090601f016020900481019282620002ad5760008555620002f9565b82601f10620002c857805160ff1916838001178555620002f9565b82800160010185558215620002f9579182015b82811115620002f8578251825591602001919060010190620002db565b5b5090506200030891906200030c565b5090565b5b80821115620003275760008160009055506001016200030d565b5090565b6000604051905090565b600080fd5b600080fd5b600080fd5b600080fd5b6000601f19601f8301169050919050565b7f4e487b7100000000000000000000000000000000000000000000000000000000600052604160045260246000fd5b620003948262000349565b810181811067ffffffffffffffff82111715620003b657620003b56200035a565b5b80604052505050565b6000620003cb6200032b565b9050620003d9828262000389565b919050565b600067ffffffffffffffff821115620003fc57620003fb6200035a565b5b620004078262000349565b9050602081019050919050565b60005b838110156200043457808201518184015260208101905062000417565b8381111562000444576000848401525b50505050565b6000620004616200045b84620003de565b620003bf565b90508281526020810184848401111562000480576200047f62000344565b5b6200048d84828562000414565b509392505050565b600082601f830112620004ad57620004ac6200033f565b5b8151620004bf8482602086016200044a565b91505092915050565b600073ffffffffffffffffffffffffffffffffffffffff82169050919050565b6000620004f582620004c8565b9050919050565b60006200050982620004e8565b9050919050565b6200051b81620004fc565b81146200052757600080fd5b50565b6000815190506200053b8162000510565b92915050565b600080600080608085870312156200055e576200055d62000335565b5b600085015167ffffffffffffffff8111156200057f576200057e6200033a565b5b6200058d8782880162000495565b945050602085015167ffffffffffffffff811115620005b157620005b06200033a565b5b620005bf8782880162000495565b935050604085015167ffffffffffffffff811115620005e357620005e26200033a565b5b620005f18782880162000495565b925050606062000604878288016200052a565b91505092959194509250565b7f4e487b7100000000000000000000000000000000000000000000000000000000600052602260045260246000fd5b600060028204905060018216806200065857607f821691505b602082108114156200066f576200066e62000610565b5b50919050565b60805161587d620006a660003960008181610c62015281816118c901528181611b880152611e4a015261587d6000f3fe6080604052600436106102505760003560e01c8063521eb273116101395780638da5cb5b116100b6578063c87b56dd1161007a578063c87b56dd14610859578063cd85cdb514610896578063d7c0f476146108ad578063e985e9c5146108d6578063f2fde38b14610913578063f43a22dc1461093c57610250565b80638da5cb5b1461077457806395d89b411461079f578063a22cb465146107ca578063b88d4fde146107f3578063c55d0f561461081c57610250565b806370a08231116100fd57806370a08231146106b3578063715018a6146106f05780637e4831d3146107075780638456cb59146107325780638d859f3e1461074957610250565b8063521eb273146105ba57806355f804b3146105e5578063569e35db1461060e5780635c975abb1461064b5780636352211e1461067657610250565b8063292c42c5116101d25780633ccfd60b116101965780633ccfd60b146104d45780633f4ba83a146104eb57806342842e0e1461050257806342966c681461052b578063479ad4c3146105545780634f6ccce71461057d57610250565b8063292c42c5146103ea5780632abacf8c146104135780632db11544146104505780632f745c591461046c57806332cb6b0c146104a957610250565b80630c1c972a116102195780630c1c972a1461033f57806318160ddd146103565780631a8bd2da146103815780631d4087721461039857806323b872dd146103c157610250565b8062b395f41461025557806301ffc9a71461027157806306fdde03146102ae578063081812fc146102d9578063095ea7b314610316575b600080fd5b61026f600480360381019061026a9190613bff565b610967565b005b34801561027d57600080fd5b5061029860048036038101906102939190613c97565b610e61565b6040516102a59190613cdf565b60405180910390f35b3480156102ba57600080fd5b506102c3611013565b6040516102d09190613d93565b60405180910390f35b3480156102e557600080fd5b5061030060048036038101906102fb9190613db5565b6110a5565b60405161030d9190613e23565b60405180910390f35b34801561032257600080fd5b5061033d60048036038101906103389190613e6a565b6110eb565b005b34801561034b57600080fd5b50610354611203565b005b34801561036257600080fd5b5061036b611228565b6040516103789190613eb9565b60405180910390f35b34801561038d57600080fd5b50610396611235565b005b3480156103a457600080fd5b506103bf60048036038101906103ba9190613bff565b611247565b005b3480156103cd57600080fd5b506103e860048036038101906103e39190613ed4565b61143d565b005b3480156103f657600080fd5b50610411600480360381019061040c9190613bff565b61149d565b005b34801561041f57600080fd5b5061043a60048036038101906104359190613db5565b6116c3565b6040516104479190613cdf565b60405180910390f35b61046a60048036038101906104659190613db5565b6116f0565b005b34801561047857600080fd5b50610493600480360381019061048e9190613e6a565b611adb565b6040516104a09190613eb9565b60405180910390f35b3480156104b557600080fd5b506104be611b80565b6040516104cb9190613eb9565b60405180910390f35b3480156104e057600080fd5b506104e9611b86565b005b3480156104f757600080fd5b50610500611bef565b005b34801561050e57600080fd5b5061052960048036038101906105249190613ed4565b611c01565b005b34801561053757600080fd5b50610552600480360381019061054d9190613db5565b611c21565b005b34801561056057600080fd5b5061057b60048036038101906105769190613db5565b611c2d565b005b34801561058957600080fd5b506105a4600480360381019061059f9190613db5565b611dd5565b6040516105b19190613eb9565b60405180910390f35b3480156105c657600080fd5b506105cf611e46565b6040516105dc9190613e23565b60405180910390f35b3480156105f157600080fd5b5061060c6004803603810190610607919061405c565b611e6e565b005b34801561061a57600080fd5b5061063560048036038101906106309190613db5565b611e90565b6040516106429190613eb9565b60405180910390f35b34801561065757600080fd5b50610660611eb0565b60405161066d9190613cdf565b60405180910390f35b34801561068257600080fd5b5061069d60048036038101906106989190613db5565b611ec7565b6040516106aa9190613e23565b60405180910390f35b3480156106bf57600080fd5b506106da60048036038101906106d591906140a5565b611f79565b6040516106e79190613eb9565b60405180910390f35b3480156106fc57600080fd5b50610705612031565b005b34801561071357600080fd5b5061071c612045565b6040516107299190613cdf565b60405180910390f35b34801561073e57600080fd5b5061074761205c565b005b34801561075557600080fd5b5061075e61206e565b60405161076b9190613eb9565b60405180910390f35b34801561078057600080fd5b5061078961207a565b6040516107969190613e23565b60405180910390f35b3480156107ab57600080fd5b506107b46120a4565b6040516107c19190613d93565b60405180910390f35b3480156107d657600080fd5b506107f160048036038101906107ec91906140fe565b612136565b005b3480156107ff57600080fd5b5061081a600480360381019061081591906141df565b61214c565b005b34801561082857600080fd5b50610843600480360381019061083e9190613db5565b6121ae565b6040516108509190613eb9565b60405180910390f35b34801561086557600080fd5b50610880600480360381019061087b9190613db5565b6121ce565b60405161088d9190613d93565b60405180910390f35b3480156108a257600080fd5b506108ab612224565b005b3480156108b957600080fd5b506108d460048036038101906108cf9190613db5565b612236565b005b3480156108e257600080fd5b506108fd60048036038101906108f89190614262565b612248565b60405161090a9190613cdf565b60405180910390f35b34801561091f57600080fd5b5061093a600480360381019061093591906140a5565b6122dc565b005b34801561094857600080fd5b50610951612360565b60405161095e9190613eb9565b60405180910390f35b818160106000838152602001908152602001600020600201548110156109c2576040517f08c379a00000000000000000000000000000000000000000000000000000000081526004016109b9906142ee565b60405180910390fd5b836109cb612365565b60006010600084815260200190815260200160002060000160009054906101000a900473ffffffffffffffffffffffffffffffffffffffff1690508173ffffffffffffffffffffffffffffffffffffffff168173ffffffffffffffffffffffffffffffffffffffff161415610a75576040517f08c379a0000000000000000000000000000000000000000000000000000000008152600401610a6c9061435a565b60405180910390fd5b866010600082815260200190815260200160002060030160009054906101000a900460ff16610ad9576040517f08c379a0000000000000000000000000000000000000000000000000000000008152600401610ad0906143c6565b60405180910390fd5b6000601060008a815260200190815260200160002060000160009054906101000a900473ffffffffffffffffffffffffffffffffffffffff1690506000601060008b815260200190815260200160002060020154905060006064600f5483610b419190614415565b610b4b919061449e565b9050601160009054906101000a900473ffffffffffffffffffffffffffffffffffffffff1673ffffffffffffffffffffffffffffffffffffffff166323b872dd610b93612365565b858486610ba091906144cf565b6040518463ffffffff1660e01b8152600401610bbe93929190614503565b602060405180830381600087803b158015610bd857600080fd5b505af1158015610bec573d6000803e3d6000fd5b505050506040513d601f19601f82011682018060405250810190610c10919061454f565b506000811115610cf457601160009054906101000a900473ffffffffffffffffffffffffffffffffffffffff1673ffffffffffffffffffffffffffffffffffffffff166323b872dd610c60612365565b7f0000000000000000000000000000000000000000000000000000000000000000846040518463ffffffff1660e01b8152600401610ca0939291906145db565b602060405180830381600087803b158015610cba57600080fd5b505af1158015610cce573d6000803e3d6000fd5b505050506040513d601f19601f82011682018060405250810190610cf2919061454f565b505b3073ffffffffffffffffffffffffffffffffffffffff166323b872dd84610d19612365565b8e6040518463ffffffff1660e01b8152600401610d3893929190614503565b600060405180830381600087803b158015610d5257600080fd5b505af1158015610d66573d6000803e3d6000fd5b50505050610d72612365565b601060008d815260200190815260200160002060000160006101000a81548173ffffffffffffffffffffffffffffffffffffffff021916908373ffffffffffffffffffffffffffffffffffffffff16021790555081601060008d8152602001908152602001600020600101819055506000601060008d815260200190815260200160002060030160006101000a81548160ff0219169083151502179055507f873ec856d8d09652f7397720e43d00bbce2988df6848c53f215beb895f4a219b610e39612365565b848484604051610e4c9493929190614612565b60405180910390a15050505050505050505050565b60007f0e083076000000000000000000000000000000000000000000000000000000007bffffffffffffffffffffffffffffffffffffffffffffffffffffffff1916827bffffffffffffffffffffffffffffffffffffffffffffffffffffffff19161480610f2c57507f42966c68000000000000000000000000000000000000000000000000000000007bffffffffffffffffffffffffffffffffffffffffffffffffffffffff1916827bffffffffffffffffffffffffffffffffffffffffffffffffffffffff1916145b80610f9457507f79f154c4000000000000000000000000000000000000000000000000000000007bffffffffffffffffffffffffffffffffffffffffffffffffffffffff1916827bffffffffffffffffffffffffffffffffffffffffffffffffffffffff1916145b80610ffc57507f7e4831d3000000000000000000000000000000000000000000000000000000007bffffffffffffffffffffffffffffffffffffffffffffffffffffffff1916827bffffffffffffffffffffffffffffffffffffffffffffffffffffffff1916145b8061100c575061100b8261236d565b5b9050919050565b60606000805461102290614686565b80601f016020809104026020016040519081016040528092919081815260200182805461104e90614686565b801561109b5780601f106110705761010080835404028352916020019161109b565b820191906000526020600020905b81548152906001019060200180831161107e57829003601f168201915b5050505050905090565b60006110b0826123e7565b6004600083815260200190815260200160002060009054906101000a900473ffffffffffffffffffffffffffffffffffffffff169050919050565b60006110f682611ec7565b90508073ffffffffffffffffffffffffffffffffffffffff168373ffffffffffffffffffffffffffffffffffffffff161415611167576040517f08c379a000000000000000000000000000000000000000000000000000000000815260040161115e9061472a565b60405180910390fd5b8073ffffffffffffffffffffffffffffffffffffffff16611186612365565b73ffffffffffffffffffffffffffffffffffffffff1614806111b557506111b4816111af612365565b612248565b5b6111f4576040517f08c379a00000000000000000000000000000000000000000000000000000000081526004016111eb906147bc565b60405180910390fd5b6111fe8383612432565b505050565b61120b6124eb565b6001600e60006101000a81548160ff021916908315150217905550565b6000600880549050905090565b61123d6124eb565b611245612569565b565b81816000601060008481526020019081526020016000206001015490506064606e826112739190614415565b61127d919061449e565b8211156112bf576040517f08c379a00000000000000000000000000000000000000000000000000000000081526004016112b69061484e565b60405180910390fd5b846112c8612365565b60006010600084815260200190815260200160002060000160009054906101000a900473ffffffffffffffffffffffffffffffffffffffff1690508173ffffffffffffffffffffffffffffffffffffffff168173ffffffffffffffffffffffffffffffffffffffff1614611371576040517f08c379a0000000000000000000000000000000000000000000000000000000008152600401611368906148ba565b60405180910390fd5b876010600082815260200190815260200160002060030160009054906101000a900460ff166113d5576040517f08c379a00000000000000000000000000000000000000000000000000000000081526004016113cc906143c6565b60405180910390fd5b87601060008b8152602001908152602001600020600201819055507f8d7fdd858b5f0584cd2be0a43e8d5d9cccd17670d5e9ec6c78573c50e4f1263f611419612365565b8a8a60405161142a939291906148da565b60405180910390a1505050505050505050565b61144e611448612365565b826125cd565b61148d576040517f08c379a000000000000000000000000000000000000000000000000000000000815260040161148490614983565b60405180910390fd5b611498838383612662565b505050565b81816000601060008481526020019081526020016000206001015490506064606e826114c99190614415565b6114d3919061449e565b821115611515576040517f08c379a000000000000000000000000000000000000000000000000000000000815260040161150c9061484e565b60405180910390fd5b8461151e612365565b60006010600084815260200190815260200160002060000160009054906101000a900473ffffffffffffffffffffffffffffffffffffffff1690508173ffffffffffffffffffffffffffffffffffffffff168173ffffffffffffffffffffffffffffffffffffffff16146115c7576040517f08c379a00000000000000000000000000000000000000000000000000000000081526004016115be906148ba565b60405180910390fd5b876010600082815260200190815260200160002060030160009054906101000a900460ff161561162c576040517f08c379a0000000000000000000000000000000000000000000000000000000008152600401611623906149ef565b60405180910390fd5b87601060008b8152602001908152602001600020600201819055506001601060008b815260200190815260200160002060030160006101000a81548160ff0219169083151502179055507f19754625af3ab9ccbf5e460bb9b249b96523b16919373e4f84114c808dc2366461169f612365565b8a8a6040516116b0939291906148da565b60405180910390a1505050505050505050565b60006010600083815260200190815260200160002060030160009054906101000a900460ff169050919050565b6002600b541415611736576040517f08c379a000000000000000000000000000000000000000000000000000000000815260040161172d90614a5b565b60405180910390fd5b6002600b81905550600e60009054906101000a900460ff1661178d576040517f08c379a000000000000000000000000000000000000000000000000000000000815260040161178490614ac7565b60405180910390fd5b6103e881600c5461179e9190614ae7565b11156117df576040517f08c379a00000000000000000000000000000000000000000000000000000000081526004016117d690614b89565b60405180910390fd5b6005811115611823576040517f08c379a000000000000000000000000000000000000000000000000000000000815260040161181a90614bf5565b60405180910390fd5b600581611836611831612365565b611f79565b6118409190614ae7565b1115611881576040517f08c379a000000000000000000000000000000000000000000000000000000000815260040161187890614c61565b60405180910390fd5b601160009054906101000a900473ffffffffffffffffffffffffffffffffffffffff1673ffffffffffffffffffffffffffffffffffffffff166323b872dd6118c7612365565b7f0000000000000000000000000000000000000000000000000000000000000000678ac7230489e80000856118fc9190614415565b6040518463ffffffff1660e01b815260040161191a939291906145db565b602060405180830381600087803b15801561193457600080fd5b505af1158015611948573d6000803e3d6000fd5b505050506040513d601f19601f8201168201806040525081019061196c919061454f565b5060005b81811015611acf5761199d611983612365565b600c6000815461199290614c81565b9190508190556128c9565b60405180608001604052806119b0612365565b73ffffffffffffffffffffffffffffffffffffffff168152602001678ac7230489e800008152602001600081526020016000151581525060106000600c54815260200190815260200160002060008201518160000160006101000a81548173ffffffffffffffffffffffffffffffffffffffff021916908373ffffffffffffffffffffffffffffffffffffffff160217905550602082015181600101556040820151816002015560608201518160030160006101000a81548160ff0219169083151502179055509050507f748a2986091c2034d6e93b6f44f771a79f0e1d6acd8a60c68c17d4e1e2feaed2611aa3612365565b600c54604051611ab4929190614cca565b60405180910390a18080611ac790614c81565b915050611970565b506001600b8190555050565b6000611ae683611f79565b8210611b27576040517f08c379a0000000000000000000000000000000000000000000000000000000008152600401611b1e90614d65565b60405180910390fd5b600660008473ffffffffffffffffffffffffffffffffffffffff1673ffffffffffffffffffffffffffffffffffffffff168152602001908152602001600020600083815260200190815260200160002054905092915050565b6103e881565b7f000000000000000000000000000000000000000000000000000000000000000073ffffffffffffffffffffffffffffffffffffffff166108fc479081150290604051600060405180830381858888f19350505050158015611bec573d6000803e3d6000fd5b50565b611bf76124eb565b611bff612aa3565b565b611c1c8383836040518060200160405280600081525061214c565b505050565b611c2a81612b06565b50565b80611c36612365565b60006010600084815260200190815260200160002060000160009054906101000a900473ffffffffffffffffffffffffffffffffffffffff1690508173ffffffffffffffffffffffffffffffffffffffff168173ffffffffffffffffffffffffffffffffffffffff1614611cdf576040517f08c379a0000000000000000000000000000000000000000000000000000000008152600401611cd6906148ba565b60405180910390fd5b836010600082815260200190815260200160002060030160009054906101000a900460ff16611d43576040517f08c379a0000000000000000000000000000000000000000000000000000000008152600401611d3a906143c6565b60405180910390fd5b6000601060008781526020019081526020016000206002018190555060006010600087815260200190815260200160002060030160006101000a81548160ff0219169083151502179055507f6f1991d9c8f21df2e00295840f26ecebb63e6f0d2f1e57dd81acdbefe3996ee3611db7612365565b86604051611dc6929190614cca565b60405180910390a15050505050565b6000611ddf611228565b8210611e20576040517f08c379a0000000000000000000000000000000000000000000000000000000008152600401611e1790614df7565b60405180910390fd5b60088281548110611e3457611e33614e17565b5b90600052602060002001549050919050565b60007f0000000000000000000000000000000000000000000000000000000000000000905090565b611e766124eb565b80600d9080519060200190611e8c929190613b12565b5050565b600060106000838152602001908152602001600020600201549050919050565b6000600a60009054906101000a900460ff16905090565b6000806002600084815260200190815260200160002060009054906101000a900473ffffffffffffffffffffffffffffffffffffffff169050600073ffffffffffffffffffffffffffffffffffffffff168173ffffffffffffffffffffffffffffffffffffffff161415611f70576040517f08c379a0000000000000000000000000000000000000000000000000000000008152600401611f6790614e92565b60405180910390fd5b80915050919050565b60008073ffffffffffffffffffffffffffffffffffffffff168273ffffffffffffffffffffffffffffffffffffffff161415611fea576040517f08c379a0000000000000000000000000000000000000000000000000000000008152600401611fe190614f24565b60405180910390fd5b600360008373ffffffffffffffffffffffffffffffffffffffff1673ffffffffffffffffffffffffffffffffffffffff168152602001908152602001600020549050919050565b6120396124eb565b6120436000612b12565b565b6000600a60019054906101000a900460ff16905090565b6120646124eb565b61206c612bd8565b565b678ac7230489e8000081565b6000600a60029054906101000a900473ffffffffffffffffffffffffffffffffffffffff16905090565b6060600180546120b390614686565b80601f01602080910402602001604051908101604052809291908181526020018280546120df90614686565b801561212c5780601f106121015761010080835404028352916020019161212c565b820191906000526020600020905b81548152906001019060200180831161210f57829003601f168201915b5050505050905090565b612148612141612365565b8383612c3b565b5050565b61215d612157612365565b836125cd565b61219c576040517f08c379a000000000000000000000000000000000000000000000000000000000815260040161219390614983565b60405180910390fd5b6121a884848484612da8565b50505050565b600060106000838152602001908152602001600020600101549050919050565b606060006121db83612e04565b905060008151116121fb576040518060200160405280600081525061221c565b8060405160200161220c9190614fcc565b6040516020818303038152906040525b915050919050565b61222c6124eb565b612234612e6c565b565b61223e6124eb565b80600f8190555050565b6000600560008473ffffffffffffffffffffffffffffffffffffffff1673ffffffffffffffffffffffffffffffffffffffff16815260200190815260200160002060008373ffffffffffffffffffffffffffffffffffffffff1673ffffffffffffffffffffffffffffffffffffffff16815260200190815260200160002060009054906101000a900460ff16905092915050565b6122e46124eb565b600073ffffffffffffffffffffffffffffffffffffffff168173ffffffffffffffffffffffffffffffffffffffff161415612354576040517f08c379a000000000000000000000000000000000000000000000000000000000815260040161234b90615060565b60405180910390fd5b61235d81612b12565b50565b600581565b600033905090565b60007f780e9d63000000000000000000000000000000000000000000000000000000007bffffffffffffffffffffffffffffffffffffffffffffffffffffffff1916827bffffffffffffffffffffffffffffffffffffffffffffffffffffffff191614806123e057506123df82612ed1565b5b9050919050565b6123f081612fb3565b61242f576040517f08c379a000000000000000000000000000000000000000000000000000000000815260040161242690614e92565b60405180910390fd5b50565b816004600083815260200190815260200160002060006101000a81548173ffffffffffffffffffffffffffffffffffffffff021916908373ffffffffffffffffffffffffffffffffffffffff160217905550808273ffffffffffffffffffffffffffffffffffffffff166124a583611ec7565b73ffffffffffffffffffffffffffffffffffffffff167f8c5be1e5ebec7d5bd14f71427d1e84f3dd0314c0f7b2291e5b200ac8c7c3b92560405160405180910390a45050565b6124f3612365565b73ffffffffffffffffffffffffffffffffffffffff1661251161207a565b73ffffffffffffffffffffffffffffffffffffffff1614612567576040517f08c379a000000000000000000000000000000000000000000000000000000000815260040161255e906150cc565b60405180910390fd5b565b612571612045565b6125b0576040517f08c379a00000000000000000000000000000000000000000000000000000000081526004016125a79061515e565b60405180910390fd5b6000600a60016101000a81548160ff021916908315150217905550565b6000806125d983611ec7565b90508073ffffffffffffffffffffffffffffffffffffffff168473ffffffffffffffffffffffffffffffffffffffff16148061261b575061261a8185612248565b5b8061265957508373ffffffffffffffffffffffffffffffffffffffff16612641846110a5565b73ffffffffffffffffffffffffffffffffffffffff16145b91505092915050565b8273ffffffffffffffffffffffffffffffffffffffff1661268282611ec7565b73ffffffffffffffffffffffffffffffffffffffff16146126d8576040517f08c379a00000000000000000000000000000000000000000000000000000000081526004016126cf906151f0565b60405180910390fd5b600073ffffffffffffffffffffffffffffffffffffffff168273ffffffffffffffffffffffffffffffffffffffff161415612748576040517f08c379a000000000000000000000000000000000000000000000000000000000815260040161273f90615282565b60405180910390fd5b61275383838361301f565b61275e600082612432565b6001600360008573ffffffffffffffffffffffffffffffffffffffff1673ffffffffffffffffffffffffffffffffffffffff16815260200190815260200160002060008282546127ae91906144cf565b925050819055506001600360008473ffffffffffffffffffffffffffffffffffffffff1673ffffffffffffffffffffffffffffffffffffffff16815260200190815260200160002060008282546128059190614ae7565b92505081905550816002600083815260200190815260200160002060006101000a81548173ffffffffffffffffffffffffffffffffffffffff021916908373ffffffffffffffffffffffffffffffffffffffff160217905550808273ffffffffffffffffffffffffffffffffffffffff168473ffffffffffffffffffffffffffffffffffffffff167fddf252ad1be2c89b69c2b068fc378daa952ba7f163c4a11628f55a4df523b3ef60405160405180910390a46128c483838361302f565b505050565b600073ffffffffffffffffffffffffffffffffffffffff168273ffffffffffffffffffffffffffffffffffffffff161415612939576040517f08c379a0000000000000000000000000000000000000000000000000000000008152600401612930906152ee565b60405180910390fd5b61294281612fb3565b15612982576040517f08c379a00000000000000000000000000000000000000000000000000000000081526004016129799061535a565b60405180910390fd5b61298e6000838361301f565b6001600360008473ffffffffffffffffffffffffffffffffffffffff1673ffffffffffffffffffffffffffffffffffffffff16815260200190815260200160002060008282546129de9190614ae7565b92505081905550816002600083815260200190815260200160002060006101000a81548173ffffffffffffffffffffffffffffffffffffffff021916908373ffffffffffffffffffffffffffffffffffffffff160217905550808273ffffffffffffffffffffffffffffffffffffffff16600073ffffffffffffffffffffffffffffffffffffffff167fddf252ad1be2c89b69c2b068fc378daa952ba7f163c4a11628f55a4df523b3ef60405160405180910390a4612a9f6000838361302f565b5050565b612aab61303f565b6000600a60006101000a81548160ff0219169083151502179055507f5db9ee0a495bf2e6ff9c91a7834c1ba4fdd244a5e8aa4e537bd38aeae4b073aa612aef612365565b604051612afc9190613e23565b60405180910390a1565b612b0f81613088565b50565b6000600a60029054906101000a900473ffffffffffffffffffffffffffffffffffffffff16905081600a60026101000a81548173ffffffffffffffffffffffffffffffffffffffff021916908373ffffffffffffffffffffffffffffffffffffffff1602179055508173ffffffffffffffffffffffffffffffffffffffff168173ffffffffffffffffffffffffffffffffffffffff167f8be0079c531659141344cd1fd0a4f28419497f9722a3daafe3b4186f6b6457e060405160405180910390a35050565b612be06131a5565b6001600a60006101000a81548160ff0219169083151502179055507f62e78cea01bee320cd4e420270b5ea74000d11b0c9f74754ebdbfc544b05a258612c24612365565b604051612c319190613e23565b60405180910390a1565b8173ffffffffffffffffffffffffffffffffffffffff168373ffffffffffffffffffffffffffffffffffffffff161415612caa576040517f08c379a0000000000000000000000000000000000000000000000000000000008152600401612ca1906153c6565b60405180910390fd5b80600560008573ffffffffffffffffffffffffffffffffffffffff1673ffffffffffffffffffffffffffffffffffffffff16815260200190815260200160002060008473ffffffffffffffffffffffffffffffffffffffff1673ffffffffffffffffffffffffffffffffffffffff16815260200190815260200160002060006101000a81548160ff0219169083151502179055508173ffffffffffffffffffffffffffffffffffffffff168373ffffffffffffffffffffffffffffffffffffffff167f17307eab39ab6107e8899845ad3d59bd9653f200f220920489ca2b5937696c3183604051612d9b9190613cdf565b60405180910390a3505050565b612db3848484612662565b612dbf848484846131ef565b612dfe576040517f08c379a0000000000000000000000000000000000000000000000000000000008152600401612df590615458565b60405180910390fd5b50505050565b6060612e0f826123e7565b6000612e19613386565b90506000815111612e395760405180602001604052806000815250612e64565b80612e4384613418565b604051602001612e54929190615478565b6040516020818303038152906040525b915050919050565b612e74612045565b15612eb4576040517f08c379a0000000000000000000000000000000000000000000000000000000008152600401612eab906154e8565b60405180910390fd5b6001600a60016101000a81548160ff021916908315150217905550565b60007f80ac58cd000000000000000000000000000000000000000000000000000000007bffffffffffffffffffffffffffffffffffffffffffffffffffffffff1916827bffffffffffffffffffffffffffffffffffffffffffffffffffffffff19161480612f9c57507f5b5e139f000000000000000000000000000000000000000000000000000000007bffffffffffffffffffffffffffffffffffffffffffffffffffffffff1916827bffffffffffffffffffffffffffffffffffffffffffffffffffffffff1916145b80612fac5750612fab82613579565b5b9050919050565b60008073ffffffffffffffffffffffffffffffffffffffff166002600084815260200190815260200160002060009054906101000a900473ffffffffffffffffffffffffffffffffffffffff1673ffffffffffffffffffffffffffffffffffffffff1614159050919050565b61302a8383836135e3565b505050565b61303a838383613673565b505050565b613047611eb0565b613086576040517f08c379a000000000000000000000000000000000000000000000000000000000815260040161307d90615554565b60405180910390fd5b565b600061309382611ec7565b90506130a18160008461301f565b6130ac600083612432565b6001600360008373ffffffffffffffffffffffffffffffffffffffff1673ffffffffffffffffffffffffffffffffffffffff16815260200190815260200160002060008282546130fc91906144cf565b925050819055506002600083815260200190815260200160002060006101000a81549073ffffffffffffffffffffffffffffffffffffffff021916905581600073ffffffffffffffffffffffffffffffffffffffff168273ffffffffffffffffffffffffffffffffffffffff167fddf252ad1be2c89b69c2b068fc378daa952ba7f163c4a11628f55a4df523b3ef60405160405180910390a46131a18160008461302f565b5050565b6131ad611eb0565b156131ed576040517f08c379a00000000000000000000000000000000000000000000000000000000081526004016131e4906155c0565b60405180910390fd5b565b60006132108473ffffffffffffffffffffffffffffffffffffffff16613678565b15613379578373ffffffffffffffffffffffffffffffffffffffff1663150b7a02613239612365565b8786866040518563ffffffff1660e01b815260040161325b9493929190615635565b602060405180830381600087803b15801561327557600080fd5b505af19250505080156132a657506040513d601f19601f820116820180604052508101906132a39190615696565b60015b613329573d80600081146132d6576040519150601f19603f3d011682016040523d82523d6000602084013e6132db565b606091505b50600081511415613321576040517f08c379a000000000000000000000000000000000000000000000000000000000815260040161331890615458565b60405180910390fd5b805181602001fd5b63150b7a0260e01b7bffffffffffffffffffffffffffffffffffffffffffffffffffffffff1916817bffffffffffffffffffffffffffffffffffffffffffffffffffffffff19161491505061337e565b600190505b949350505050565b6060600d805461339590614686565b80601f01602080910402602001604051908101604052809291908181526020018280546133c190614686565b801561340e5780601f106133e35761010080835404028352916020019161340e565b820191906000526020600020905b8154815290600101906020018083116133f157829003601f168201915b5050505050905090565b60606000821415613460576040518060400160405280600181526020017f30000000000000000000000000000000000000000000000000000000000000008152509050613574565b600082905060005b6000821461349257808061347b90614c81565b915050600a8261348b919061449e565b9150613468565b60008167ffffffffffffffff8111156134ae576134ad613f31565b5b6040519080825280601f01601f1916602001820160405280156134e05781602001600182028036833780820191505090505b5090505b6000851461356d576001826134f991906144cf565b9150600a8561350891906156c3565b60306135149190614ae7565b60f81b81838151811061352a57613529614e17565b5b60200101907effffffffffffffffffffffffffffffffffffffffffffffffffffffffffffff1916908160001a905350600a85613566919061449e565b94506134e4565b8093505050505b919050565b60007f01ffc9a7000000000000000000000000000000000000000000000000000000007bffffffffffffffffffffffffffffffffffffffffffffffffffffffff1916827bffffffffffffffffffffffffffffffffffffffffffffffffffffffff1916149050919050565b6135ee83838361369b565b6135f6612045565b158061362f5750600073ffffffffffffffffffffffffffffffffffffffff168373ffffffffffffffffffffffffffffffffffffffff1614155b61366e576040517f08c379a000000000000000000000000000000000000000000000000000000000815260040161366590615766565b60405180910390fd5b505050565b505050565b6000808273ffffffffffffffffffffffffffffffffffffffff163b119050919050565b6136a68383836136f3565b6136ae611eb0565b156136ee576040517f08c379a00000000000000000000000000000000000000000000000000000000081526004016136e5906157f8565b60405180910390fd5b505050565b6136fe838383613807565b600073ffffffffffffffffffffffffffffffffffffffff168373ffffffffffffffffffffffffffffffffffffffff1614156137415761373c8161380c565b613780565b8173ffffffffffffffffffffffffffffffffffffffff168373ffffffffffffffffffffffffffffffffffffffff161461377f5761377e8382613855565b5b5b600073ffffffffffffffffffffffffffffffffffffffff168273ffffffffffffffffffffffffffffffffffffffff1614156137c3576137be816139c2565b613802565b8273ffffffffffffffffffffffffffffffffffffffff168273ffffffffffffffffffffffffffffffffffffffff1614613801576138008282613a93565b5b5b505050565b505050565b6008805490506009600083815260200190815260200160002081905550600881908060018154018082558091505060019003906000526020600020016000909190919091505550565b6000600161386284611f79565b61386c91906144cf565b9050600060076000848152602001908152602001600020549050818114613951576000600660008673ffffffffffffffffffffffffffffffffffffffff1673ffffffffffffffffffffffffffffffffffffffff168152602001908152602001600020600084815260200190815260200160002054905080600660008773ffffffffffffffffffffffffffffffffffffffff1673ffffffffffffffffffffffffffffffffffffffff168152602001908152602001600020600084815260200190815260200160002081905550816007600083815260200190815260200160002081905550505b6007600084815260200190815260200160002060009055600660008573ffffffffffffffffffffffffffffffffffffffff1673ffffffffffffffffffffffffffffffffffffffff16815260200190815260200160002060008381526020019081526020016000206000905550505050565b600060016008805490506139d691906144cf565b9050600060096000848152602001908152602001600020549050600060088381548110613a0657613a05614e17565b5b906000526020600020015490508060088381548110613a2857613a27614e17565b5b906000526020600020018190555081600960008381526020019081526020016000208190555060096000858152602001908152602001600020600090556008805480613a7757613a76615818565b5b6001900381819060005260206000200160009055905550505050565b6000613a9e83611f79565b905081600660008573ffffffffffffffffffffffffffffffffffffffff1673ffffffffffffffffffffffffffffffffffffffff168152602001908152602001600020600083815260200190815260200160002081905550806007600084815260200190815260200160002081905550505050565b828054613b1e90614686565b90600052602060002090601f016020900481019282613b405760008555613b87565b82601f10613b5957805160ff1916838001178555613b87565b82800160010185558215613b87579182015b82811115613b86578251825591602001919060010190613b6b565b5b509050613b949190613b98565b5090565b5b80821115613bb1576000816000905550600101613b99565b5090565b6000604051905090565b600080fd5b600080fd5b6000819050919050565b613bdc81613bc9565b8114613be757600080fd5b50565b600081359050613bf981613bd3565b92915050565b60008060408385031215613c1657613c15613bbf565b5b6000613c2485828601613bea565b9250506020613c3585828601613bea565b9150509250929050565b60007fffffffff0000000000000000000000000000000000000000000000000000000082169050919050565b613c7481613c3f565b8114613c7f57600080fd5b50565b600081359050613c9181613c6b565b92915050565b600060208284031215613cad57613cac613bbf565b5b6000613cbb84828501613c82565b91505092915050565b60008115159050919050565b613cd981613cc4565b82525050565b6000602082019050613cf46000830184613cd0565b92915050565b600081519050919050565b600082825260208201905092915050565b60005b83811015613d34578082015181840152602081019050613d19565b83811115613d43576000848401525b50505050565b6000601f19601f8301169050919050565b6000613d6582613cfa565b613d6f8185613d05565b9350613d7f818560208601613d16565b613d8881613d49565b840191505092915050565b60006020820190508181036000830152613dad8184613d5a565b905092915050565b600060208284031215613dcb57613dca613bbf565b5b6000613dd984828501613bea565b91505092915050565b600073ffffffffffffffffffffffffffffffffffffffff82169050919050565b6000613e0d82613de2565b9050919050565b613e1d81613e02565b82525050565b6000602082019050613e386000830184613e14565b92915050565b613e4781613e02565b8114613e5257600080fd5b50565b600081359050613e6481613e3e565b92915050565b60008060408385031215613e8157613e80613bbf565b5b6000613e8f85828601613e55565b9250506020613ea085828601613bea565b9150509250929050565b613eb381613bc9565b82525050565b6000602082019050613ece6000830184613eaa565b92915050565b600080600060608486031215613eed57613eec613bbf565b5b6000613efb86828701613e55565b9350506020613f0c86828701613e55565b9250506040613f1d86828701613bea565b9150509250925092565b600080fd5b600080fd5b7f4e487b7100000000000000000000000000000000000000000000000000000000600052604160045260246000fd5b613f6982613d49565b810181811067ffffffffffffffff82111715613f8857613f87613f31565b5b80604052505050565b6000613f9b613bb5565b9050613fa78282613f60565b919050565b600067ffffffffffffffff821115613fc757613fc6613f31565b5b613fd082613d49565b9050602081019050919050565b82818337600083830152505050565b6000613fff613ffa84613fac565b613f91565b90508281526020810184848401111561401b5761401a613f2c565b5b614026848285613fdd565b509392505050565b600082601f83011261404357614042613f27565b5b8135614053848260208601613fec565b91505092915050565b60006020828403121561407257614071613bbf565b5b600082013567ffffffffffffffff8111156140905761408f613bc4565b5b61409c8482850161402e565b91505092915050565b6000602082840312156140bb576140ba613bbf565b5b60006140c984828501613e55565b91505092915050565b6140db81613cc4565b81146140e657600080fd5b50565b6000813590506140f8816140d2565b92915050565b6000806040838503121561411557614114613bbf565b5b600061412385828601613e55565b9250506020614134858286016140e9565b9150509250929050565b600067ffffffffffffffff82111561415957614158613f31565b5b61416282613d49565b9050602081019050919050565b600061418261417d8461413e565b613f91565b90508281526020810184848401111561419e5761419d613f2c565b5b6141a9848285613fdd565b509392505050565b600082601f8301126141c6576141c5613f27565b5b81356141d684826020860161416f565b91505092915050565b600080600080608085870312156141f9576141f8613bbf565b5b600061420787828801613e55565b945050602061421887828801613e55565b935050604061422987828801613bea565b925050606085013567ffffffffffffffff81111561424a57614249613bc4565b5b614256878288016141b1565b91505092959194509250565b6000806040838503121561427957614278613bbf565b5b600061428785828601613e55565b925050602061429885828601613e55565b9150509250929050565b7f496e73756666696369656e7420746f6b656e20666f722070757263686173652e600082015250565b60006142d8602083613d05565b91506142e3826142a2565b602082019050919050565b60006020820190508181036000830152614307816142cb565b9050919050565b7f596f752061726520746865207469636b6574206f776e65722e00000000000000600082015250565b6000614344601983613d05565b915061434f8261430e565b602082019050919050565b6000602082019050818103600083015261437381614337565b9050919050565b7f5469636b6574206973206e6f74206f6e2073616c652e00000000000000000000600082015250565b60006143b0601683613d05565b91506143bb8261437a565b602082019050919050565b600060208201905081810360008301526143df816143a3565b9050919050565b7f4e487b7100000000000000000000000000000000000000000000000000000000600052601160045260246000fd5b600061442082613bc9565b915061442b83613bc9565b9250817fffffffffffffffffffffffffffffffffffffffffffffffffffffffffffffffff0483118215151615614464576144636143e6565b5b828202905092915050565b7f4e487b7100000000000000000000000000000000000000000000000000000000600052601260045260246000fd5b60006144a982613bc9565b91506144b483613bc9565b9250826144c4576144c361446f565b5b828204905092915050565b60006144da82613bc9565b91506144e583613bc9565b9250828210156144f8576144f76143e6565b5b828203905092915050565b60006060820190506145186000830186613e14565b6145256020830185613e14565b6145326040830184613eaa565b949350505050565b600081519050614549816140d2565b92915050565b60006020828403121561456557614564613bbf565b5b60006145738482850161453a565b91505092915050565b6000819050919050565b60006145a161459c61459784613de2565b61457c565b613de2565b9050919050565b60006145b382614586565b9050919050565b60006145c5826145a8565b9050919050565b6145d5816145ba565b82525050565b60006060820190506145f06000830186613e14565b6145fd60208301856145cc565b61460a6040830184613eaa565b949350505050565b60006080820190506146276000830187613e14565b6146346020830186613e14565b6146416040830185613eaa565b61464e6060830184613eaa565b95945050505050565b7f4e487b7100000000000000000000000000000000000000000000000000000000600052602260045260246000fd5b6000600282049050600182168061469e57607f821691505b602082108114156146b2576146b1614657565b5b50919050565b7f4552433732313a20617070726f76616c20746f2063757272656e74206f776e6560008201527f7200000000000000000000000000000000000000000000000000000000000000602082015250565b6000614714602183613d05565b915061471f826146b8565b604082019050919050565b6000602082019050818103600083015261474381614707565b9050919050565b7f4552433732313a20617070726f76652063616c6c6572206973206e6f7420746f60008201527f6b656e206f776e6572206e6f7220617070726f76656420666f7220616c6c0000602082015250565b60006147a6603e83613d05565b91506147b18261474a565b604082019050919050565b600060208201905081810360008301526147d581614799565b9050919050565b7f52652d73656c6c696e67207072696365206973206d6f7265207468616e20313160008201527f3025000000000000000000000000000000000000000000000000000000000000602082015250565b6000614838602283613d05565b9150614843826147dc565b604082019050919050565b600060208201905081810360008301526148678161482b565b9050919050565b7f596f7520617265206e6f7420746865207469636b6574206f776e65722e000000600082015250565b60006148a4601d83613d05565b91506148af8261486e565b602082019050919050565b600060208201905081810360008301526148d381614897565b9050919050565b60006060820190506148ef6000830186613e14565b6148fc6020830185613eaa565b6149096040830184613eaa565b949350505050565b7f4552433732313a2063616c6c6572206973206e6f7420746f6b656e206f776e6560008201527f72206e6f7220617070726f766564000000000000000000000000000000000000602082015250565b600061496d602e83613d05565b915061497882614911565b604082019050919050565b6000602082019050818103600083015261499c81614960565b9050919050565b7f5469636b6574206973206f6e2073616c652e0000000000000000000000000000600082015250565b60006149d9601283613d05565b91506149e4826149a3565b602082019050919050565b60006020820190508181036000830152614a08816149cc565b9050919050565b7f5265656e7472616e637947756172643a207265656e7472616e742063616c6c00600082015250565b6000614a45601f83613d05565b9150614a5082614a0f565b602082019050919050565b60006020820190508181036000830152614a7481614a38565b9050919050565b7f5075626c69632073616c65206e6f742061637469766500000000000000000000600082015250565b6000614ab1601683613d05565b9150614abc82614a7b565b602082019050919050565b60006020820190508181036000830152614ae081614aa4565b9050919050565b6000614af282613bc9565b9150614afd83613bc9565b9250827fffffffffffffffffffffffffffffffffffffffffffffffffffffffffffffffff03821115614b3257614b316143e6565b5b828201905092915050565b7f45786365656473206d617820737570706c790000000000000000000000000000600082015250565b6000614b73601283613d05565b9150614b7e82614b3d565b602082019050919050565b60006020820190508181036000830152614ba281614b66565b9050919050565b7f45786365656473206d617820706572207472616e73616374696f6e0000000000600082015250565b6000614bdf601b83613d05565b9150614bea82614ba9565b602082019050919050565b60006020820190508181036000830152614c0e81614bd2565b9050919050565b7f45786365656473206d6178696d756d207075626c6963206d696e74696e670000600082015250565b6000614c4b601e83613d05565b9150614c5682614c15565b602082019050919050565b60006020820190508181036000830152614c7a81614c3e565b9050919050565b6000614c8c82613bc9565b91507fffffffffffffffffffffffffffffffffffffffffffffffffffffffffffffffff821415614cbf57614cbe6143e6565b5b600182019050919050565b6000604082019050614cdf6000830185613e14565b614cec6020830184613eaa565b9392505050565b7f455243373231456e756d657261626c653a206f776e657220696e646578206f7560008201527f74206f6620626f756e6473000000000000000000000000000000000000000000602082015250565b6000614d4f602b83613d05565b9150614d5a82614cf3565b604082019050919050565b60006020820190508181036000830152614d7e81614d42565b9050919050565b7f455243373231456e756d657261626c653a20676c6f62616c20696e646578206f60008201527f7574206f6620626f756e64730000000000000000000000000000000000000000602082015250565b6000614de1602c83613d05565b9150614dec82614d85565b604082019050919050565b60006020820190508181036000830152614e1081614dd4565b9050919050565b7f4e487b7100000000000000000000000000000000000000000000000000000000600052603260045260246000fd5b7f4552433732313a20696e76616c696420746f6b656e2049440000000000000000600082015250565b6000614e7c601883613d05565b9150614e8782614e46565b602082019050919050565b60006020820190508181036000830152614eab81614e6f565b9050919050565b7f4552433732313a2061646472657373207a65726f206973206e6f74206120766160008201527f6c6964206f776e65720000000000000000000000000000000000000000000000602082015250565b6000614f0e602983613d05565b9150614f1982614eb2565b604082019050919050565b60006020820190508181036000830152614f3d81614f01565b9050919050565b600081905092915050565b6000614f5a82613cfa565b614f648185614f44565b9350614f74818560208601613d16565b80840191505092915050565b7f2e6a736f6e000000000000000000000000000000000000000000000000000000600082015250565b6000614fb6600583614f44565b9150614fc182614f80565b600582019050919050565b6000614fd88284614f4f565b9150614fe382614fa9565b915081905092915050565b7f4f776e61626c653a206e6577206f776e657220697320746865207a65726f206160008201527f6464726573730000000000000000000000000000000000000000000000000000602082015250565b600061504a602683613d05565b915061505582614fee565b604082019050919050565b600060208201905081810360008301526150798161503d565b9050919050565b7f4f776e61626c653a2063616c6c6572206973206e6f7420746865206f776e6572600082015250565b60006150b6602083613d05565b91506150c182615080565b602082019050919050565b600060208201905081810360008301526150e5816150a9565b9050919050565b7f4552433732314d696e745061757361626c653a204d696e74206e6f742070617560008201527f7365640000000000000000000000000000000000000000000000000000000000602082015250565b6000615148602383613d05565b9150615153826150ec565b604082019050919050565b600060208201905081810360008301526151778161513b565b9050919050565b7f4552433732313a207472616e736665722066726f6d20696e636f72726563742060008201527f6f776e6572000000000000000000000000000000000000000000000000000000602082015250565b60006151da602583613d05565b91506151e58261517e565b604082019050919050565b60006020820190508181036000830152615209816151cd565b9050919050565b7f4552433732313a207472616e7366657220746f20746865207a65726f2061646460008201527f7265737300000000000000000000000000000000000000000000000000000000602082015250565b600061526c602483613d05565b915061527782615210565b604082019050919050565b6000602082019050818103600083015261529b8161525f565b9050919050565b7f4552433732313a206d696e7420746f20746865207a65726f2061646472657373600082015250565b60006152d8602083613d05565b91506152e3826152a2565b602082019050919050565b60006020820190508181036000830152615307816152cb565b9050919050565b7f4552433732313a20746f6b656e20616c7265616479206d696e74656400000000600082015250565b6000615344601c83613d05565b915061534f8261530e565b602082019050919050565b6000602082019050818103600083015261537381615337565b9050919050565b7f4552433732313a20617070726f766520746f2063616c6c657200000000000000600082015250565b60006153b0601983613d05565b91506153bb8261537a565b602082019050919050565b600060208201905081810360008301526153df816153a3565b9050919050565b7f4552433732313a207472616e7366657220746f206e6f6e20455243373231526560008201527f63656976657220696d706c656d656e7465720000000000000000000000000000602082015250565b6000615442603283613d05565b915061544d826153e6565b604082019050919050565b6000602082019050818103600083015261547181615435565b9050919050565b60006154848285614f4f565b91506154908284614f4f565b91508190509392505050565b7f4552433732314d696e745061757361626c653a204d696e742070617573656400600082015250565b60006154d2601f83613d05565b91506154dd8261549c565b602082019050919050565b60006020820190508181036000830152615501816154c5565b9050919050565b7f5061757361626c653a206e6f7420706175736564000000000000000000000000600082015250565b600061553e601483613d05565b915061554982615508565b602082019050919050565b6000602082019050818103600083015261556d81615531565b9050919050565b7f5061757361626c653a2070617573656400000000000000000000000000000000600082015250565b60006155aa601083613d05565b91506155b582615574565b602082019050919050565b600060208201905081810360008301526155d98161559d565b9050919050565b600081519050919050565b600082825260208201905092915050565b6000615607826155e0565b61561181856155eb565b9350615621818560208601613d16565b61562a81613d49565b840191505092915050565b600060808201905061564a6000830187613e14565b6156576020830186613e14565b6156646040830185613eaa565b818103606083015261567681846155fc565b905095945050505050565b60008151905061569081613c6b565b92915050565b6000602082840312156156ac576156ab613bbf565b5b60006156ba84828501615681565b91505092915050565b60006156ce82613bc9565b91506156d983613bc9565b9250826156e9576156e861446f565b5b828206905092915050565b7f4552433732314d696e745061757361626c653a204d696e74696e67206973206460008201527f697361626c656400000000000000000000000000000000000000000000000000602082015250565b6000615750602783613d05565b915061575b826156f4565b604082019050919050565b6000602082019050818103600083015261577f81615743565b9050919050565b7f4552433732315061757361626c653a20746f6b656e207472616e73666572207760008201527f68696c6520706175736564000000000000000000000000000000000000000000602082015250565b60006157e2602b83613d05565b91506157ed82615786565b604082019050919050565b60006020820190508181036000830152615811816157d5565b9050919050565b7f4e487b7100000000000000000000000000000000000000000000000000000000600052603160045260246000fdfea2646970667358221220b415615fdbf3e6bbb54badc1ca3ab72fe1daab76b6de8d8a9556b43b080ae04864736f6c63430008090033",
  "devdoc": {
    "kind": "dev",
    "methods": {
      "approve(address,uint256)": {
        "details": "See {IERC721-approve}."
      },
      "balanceOf(address)": {
        "details": "See {IERC721-balanceOf}."
      },
      "burn(uint256)": {
        "details": "Burns `tokenId`. See {ERC721-_burn}. Requirements: - The caller must own `tokenId` or be an approved operator."
      },
      "getApproved(uint256)": {
        "details": "See {IERC721-getApproved}."
      },
      "isApprovedForAll(address,address)": {
        "details": "See {IERC721-isApprovedForAll}."
      },
      "name()": {
        "details": "See {IERC721Metadata-name}."
      },
      "owner()": {
        "details": "Returns the address of the current owner."
      },
      "ownerOf(uint256)": {
        "details": "See {IERC721-ownerOf}."
      },
      "paused()": {
        "details": "Returns true if the contract is paused, and false otherwise."
      },
      "renounceOwnership()": {
        "details": "Leaves the contract without owner. It will not be possible to call `onlyOwner` functions anymore. Can only be called by the current owner. NOTE: Renouncing ownership will leave the contract without an owner, thereby removing any functionality that is only available to the owner."
      },
      "safeTransferFrom(address,address,uint256)": {
        "details": "See {IERC721-safeTransferFrom}."
      },
      "safeTransferFrom(address,address,uint256,bytes)": {
        "details": "See {IERC721-safeTransferFrom}."
      },
      "setApprovalForAll(address,bool)": {
        "details": "See {IERC721-setApprovalForAll}."
      },
      "symbol()": {
        "details": "See {IERC721Metadata-symbol}."
      },
      "tokenByIndex(uint256)": {
        "details": "See {IERC721Enumerable-tokenByIndex}."
      },
      "tokenOfOwnerByIndex(address,uint256)": {
        "details": "See {IERC721Enumerable-tokenOfOwnerByIndex}."
      },
      "tokenURI(uint256)": {
        "details": "See {IERC721Metadata-tokenURI}."
      },
      "totalSupply()": {
        "details": "See {IERC721Enumerable-totalSupply}."
      },
      "transferFrom(address,address,uint256)": {
        "details": "See {IERC721-transferFrom}."
      },
      "transferOwnership(address)": {
        "details": "Transfers ownership of the contract to a new account (`newOwner`). Can only be called by the current owner."
      }
    },
    "version": 1
  },
  "userdoc": {
    "kind": "user",
    "methods": {},
    "version": 1
  },
  "storageLayout": {
    "storage": [
      {
        "astId": 1412,
        "contract": "contracts/FestivalNFT.sol:FestivalNFT",
        "label": "_name",
        "offset": 0,
        "slot": "0",
        "type": "t_string_storage"
      },
      {
        "astId": 1414,
        "contract": "contracts/FestivalNFT.sol:FestivalNFT",
        "label": "_symbol",
        "offset": 0,
        "slot": "1",
        "type": "t_string_storage"
      },
      {
        "astId": 1418,
        "contract": "contracts/FestivalNFT.sol:FestivalNFT",
        "label": "_owners",
        "offset": 0,
        "slot": "2",
        "type": "t_mapping(t_uint256,t_address)"
      },
      {
        "astId": 1422,
        "contract": "contracts/FestivalNFT.sol:FestivalNFT",
        "label": "_balances",
        "offset": 0,
        "slot": "3",
        "type": "t_mapping(t_address,t_uint256)"
      },
      {
        "astId": 1426,
        "contract": "contracts/FestivalNFT.sol:FestivalNFT",
        "label": "_tokenApprovals",
        "offset": 0,
        "slot": "4",
        "type": "t_mapping(t_uint256,t_address)"
      },
      {
        "astId": 1432,
        "contract": "contracts/FestivalNFT.sol:FestivalNFT",
        "label": "_operatorApprovals",
        "offset": 0,
        "slot": "5",
        "type": "t_mapping(t_address,t_mapping(t_address,t_bool))"
      },
      {
        "astId": 2432,
        "contract": "contracts/FestivalNFT.sol:FestivalNFT",
        "label": "_ownedTokens",
        "offset": 0,
        "slot": "6",
        "type": "t_mapping(t_address,t_mapping(t_uint256,t_uint256))"
      },
      {
        "astId": 2436,
        "contract": "contracts/FestivalNFT.sol:FestivalNFT",
        "label": "_ownedTokensIndex",
        "offset": 0,
        "slot": "7",
        "type": "t_mapping(t_uint256,t_uint256)"
      },
      {
        "astId": 2439,
        "contract": "contracts/FestivalNFT.sol:FestivalNFT",
        "label": "_allTokens",
        "offset": 0,
        "slot": "8",
        "type": "t_array(t_uint256)dyn_storage"
      },
      {
        "astId": 2443,
        "contract": "contracts/FestivalNFT.sol:FestivalNFT",
        "label": "_allTokensIndex",
        "offset": 0,
        "slot": "9",
        "type": "t_mapping(t_uint256,t_uint256)"
      },
      {
        "astId": 523,
        "contract": "contracts/FestivalNFT.sol:FestivalNFT",
        "label": "_paused",
        "offset": 0,
        "slot": "10",
        "type": "t_bool"
      },
      {
        "astId": 4443,
        "contract": "contracts/FestivalNFT.sol:FestivalNFT",
        "label": "_mintingPaused",
        "offset": 1,
        "slot": "10",
        "type": "t_bool"
      },
      {
        "astId": 400,
        "contract": "contracts/FestivalNFT.sol:FestivalNFT",
        "label": "_owner",
        "offset": 2,
        "slot": "10",
        "type": "t_address"
      },
      {
        "astId": 624,
        "contract": "contracts/FestivalNFT.sol:FestivalNFT",
        "label": "_status",
        "offset": 0,
        "slot": "11",
        "type": "t_uint256"
      },
      {
        "astId": 3465,
        "contract": "contracts/FestivalNFT.sol:FestivalNFT",
        "label": "_tokenId",
        "offset": 0,
        "slot": "12",
        "type": "t_uint256"
      },
      {
        "astId": 3467,
        "contract": "contracts/FestivalNFT.sol:FestivalNFT",
        "label": "_baseTokenURI",
        "offset": 0,
        "slot": "13",
        "type": "t_string_storage"
      },
      {
        "astId": 3472,
        "contract": "contracts/FestivalNFT.sol:FestivalNFT",
        "label": "_publicSaleOpen",
        "offset": 0,
        "slot": "14",
        "type": "t_bool"
      },
      {
        "astId": 3484,
        "contract": "contracts/FestivalNFT.sol:FestivalNFT",
        "label": "monetisation",
        "offset": 1,
        "slot": "14",
        "type": "t_bool"
      },
      {
        "astId": 3487,
        "contract": "contracts/FestivalNFT.sol:FestivalNFT",
        "label": "commission",
        "offset": 0,
        "slot": "15",
        "type": "t_uint256"
      },
      {
        "astId": 3492,
        "contract": "contracts/FestivalNFT.sol:FestivalNFT",
        "label": "_ticketDetails",
        "offset": 0,
        "slot": "16",
        "type": "t_mapping(t_uint256,t_struct(TicketDetails)3481_storage)"
      },
      {
        "astId": 3533,
        "contract": "contracts/FestivalNFT.sol:FestivalNFT",
        "label": "_token",
        "offset": 0,
        "slot": "17",
        "type": "t_contract(FestivalToken)4436"
      }
    ],
    "types": {
      "t_address": {
        "encoding": "inplace",
        "label": "address",
        "numberOfBytes": "20"
      },
      "t_array(t_uint256)dyn_storage": {
        "base": "t_uint256",
        "encoding": "dynamic_array",
        "label": "uint256[]",
        "numberOfBytes": "32"
      },
      "t_bool": {
        "encoding": "inplace",
        "label": "bool",
        "numberOfBytes": "1"
      },
      "t_contract(FestivalToken)4436": {
        "encoding": "inplace",
        "label": "contract FestivalToken",
        "numberOfBytes": "20"
      },
      "t_mapping(t_address,t_bool)": {
        "encoding": "mapping",
        "key": "t_address",
        "label": "mapping(address => bool)",
        "numberOfBytes": "32",
        "value": "t_bool"
      },
      "t_mapping(t_address,t_mapping(t_address,t_bool))": {
        "encoding": "mapping",
        "key": "t_address",
        "label": "mapping(address => mapping(address => bool))",
        "numberOfBytes": "32",
        "value": "t_mapping(t_address,t_bool)"
      },
      "t_mapping(t_address,t_mapping(t_uint256,t_uint256))": {
        "encoding": "mapping",
        "key": "t_address",
        "label": "mapping(address => mapping(uint256 => uint256))",
        "numberOfBytes": "32",
        "value": "t_mapping(t_uint256,t_uint256)"
      },
      "t_mapping(t_address,t_uint256)": {
        "encoding": "mapping",
        "key": "t_address",
        "label": "mapping(address => uint256)",
        "numberOfBytes": "32",
        "value": "t_uint256"
      },
      "t_mapping(t_uint256,t_address)": {
        "encoding": "mapping",
        "key": "t_uint256",
        "label": "mapping(uint256 => address)",
        "numberOfBytes": "32",
        "value": "t_address"
      },
      "t_mapping(t_uint256,t_struct(TicketDetails)3481_storage)": {
        "encoding": "mapping",
        "key": "t_uint256",
        "label": "mapping(uint256 => struct FestivalNFT.TicketDetails)",
        "numberOfBytes": "32",
        "value": "t_struct(TicketDetails)3481_storage"
      },
      "t_mapping(t_uint256,t_uint256)": {
        "encoding": "mapping",
        "key": "t_uint256",
        "label": "mapping(uint256 => uint256)",
        "numberOfBytes": "32",
        "value": "t_uint256"
      },
      "t_string_storage": {
        "encoding": "bytes",
        "label": "string",
        "numberOfBytes": "32"
      },
      "t_struct(TicketDetails)3481_storage": {
        "encoding": "inplace",
        "label": "struct FestivalNFT.TicketDetails",
        "members": [
          {
            "astId": 3474,
            "contract": "contracts/FestivalNFT.sol:FestivalNFT",
            "label": "ticketOwner",
            "offset": 0,
            "slot": "0",
            "type": "t_address"
          },
          {
            "astId": 3476,
            "contract": "contracts/FestivalNFT.sol:FestivalNFT",
            "label": "currentPrice",
            "offset": 0,
            "slot": "1",
            "type": "t_uint256"
          },
          {
            "astId": 3478,
            "contract": "contracts/FestivalNFT.sol:FestivalNFT",
            "label": "sellingPrice",
            "offset": 0,
            "slot": "2",
            "type": "t_uint256"
          },
          {
            "astId": 3480,
            "contract": "contracts/FestivalNFT.sol:FestivalNFT",
            "label": "forSale",
            "offset": 0,
            "slot": "3",
            "type": "t_bool"
          }
        ],
        "numberOfBytes": "128"
      },
      "t_uint256": {
        "encoding": "inplace",
        "label": "uint256",
        "numberOfBytes": "32"
      }
    }
  }
}